:020000040800F2
:1000000040080020C9010008D1010008D301000800
:10001000D5010008D7010008D90100080000000040
:10002000000000000000000000000000DB010008EC
:10003000DD01000800000000DF010008E101000808
:10004000E3010008E3010008E3010008E301000800
:10005000E3010008E3010008C1020008C10500082F
:10006000D9050008F105000809060008E3010008A9
:10007000E3010008E3010008E3010008E3010008D0
:10008000E3010008E3010008E3010008E3010008C0
:10009000E3010008E3010008E30100084506000849
:1000A000E3010008E3010008E3010008E3010008A0
:1000B000111000083110000861100008E301000869
:1000C000E3010008E3010008E3010008E301000880
:1000D000E30100087D10000899100008B510000821
:1000E000E3010008E3010008E301000800F002F862
:1000F00000F05AF80AA090E8000C82448344AAF168
:100100000107DA4501D100F04FF8AFF2090EBAE865
:100110000F0013F0010F18BFFB1A43F0010318473B
:10012000403C0000603C00000A444FF0000C10F816
:10013000013B13F0070408BF10F8014B1D1108BF65
:1001400010F8015B641E05D010F8016B641E01F805
:10015000016BF9D113F0080F1EBF10F8014BAD1C55
:100160000C1B09D16D1E58BF01F801CBFAD505E073
:1001700014F8016B01F8016B6D1EF9D59142D6D3CD
:10018000704700000023002400250026103A28BFF5
:1001900078C1FBD8520728BF30C148BF0B607047F9
:1001A0001FB51FBD10B510BD00F05CF81146FFF77C
:1001B000F7FF01F081FC00F07AF803B4FFF7F2FFDB
:1001C00003BC01F031F800000948804709480047A6
:1001D000FEE7FEE7FEE7FEE7FEE7FEE7FEE7FEE7F7
:1001E000FEE7FEE704480549054A064B7047000054
:1001F000B10F0008ED000008400200204008002078
:100200004004002040040020704740EA01030246F9
:1002100030B59B0710D14FF0013400E008C208C987
:100220001D1B9D4315EAC41FF8D013F0FF0102F80F
:10023000011B0DD01B0AF8E711F8013B002B02F857
:10024000013B05D011F8013B002B02F8013BF3D133
:1002500030BD7047704770477047000000487047D6
:10026000DC0100207546FFF7F9FFAE460500694640
:10027000534620F00700854618B020B5FFF7B2FFBF
:10028000BDE820404FF000064FF000074FF0000897
:100290004FF0000B21F00701AC46ACE8C009ACE818
:1002A000C009ACE8C009ACE8C0098D46704710B57C
:1002B0000446AFF300802046BDE81040FFF77DBF45
:1002C0002DE9FF5FA348006800F0010000287DD001
:1002D00000F08CFBA048B0F9000002F091FF019003
:1002E00002F0F6FD4FF066329C4BCDE9020102F0C0
:1002F00079FA80469A4A9B4B02F0F6FB06460F4677
:100300009948006802F0E4FD824632463B4602F01E
:10031000B9F9044602F084F9934908609348B0F9AA
:10032000000002F06DFF019002F0D2FD80464FF018
:1003300066328A4B02F056FA0646894A894B02F029
:10034000D3FB82468B468A48006802F0C1FD5246C4
:100350005B46CDE9020102F095F9044602F060F92E
:10036000834908608348B0F9000002F049FF01901A
:1003700002F0AEFD82464FF06632784B02F032FA60
:100380008046774A774B02F0AFFBCDE902017A480D
:10039000006802F09DFD0646DDE9022302F072F9D5
:1003A000044602F03DF9744908607448B0F9000051
:1003B00002F026FF83467248B0F9000002F020FFE9
:1003C0005946039002F01EFE824600E0C0E002F0B3
:1003D0007FFD804600F02AFF06466A4A6A4B02F01B
:1003E00083FB044602F01CF9684908606348B0F9D1
:1003F000000002F005FF83466548B0F9000002F0F6
:10040000FFFE5946039002F0FDFD824602F060FDBA
:10041000804600F00BFF81F000410646594A5A4BD6
:1004200002F062FB044602F0FBF85A4908605848A3
:10043000B0F9000002F0E4FE83465148B0F9000034
:1004400002F0DEFE5946039002F0DCFD824602F027
:100450003FFD064600F0EAFE04464A4A4A4B02F0D7
:1004600043FB804602F0DCF84B4908604B48B0F98A
:10047000000002F0C5FE039002F02AFD8046894686
:100480004748B0F9000002F0BBFE039002F020FDE7
:10049000064642464B4600F0D9FF0446394A3A4BDD
:1004A00002F022FB824602F0BBF83E4908602A486F
:1004B000B0F9000002F0A4FE814602F009FD0746F3
:1004C0004FF06632254B02F08DF9054602F0A8F890
:1004D000044622462D480168334800F0E7F93349C5
:1004E00008602248B0F9000002F08AFE814602F05E
:1004F000EFFC07464FF06632184B02F073F90546E1
:1005000002F08EF80446224622480168284800F08E
:10051000CDF9284908601748B0F9000002F070FED4
:10052000814602F0D5FC07464FF066320B4B02F0D5
:1005300059F9054602F074F8044622461948016844
:100540001D4800F0B3F91D49086001200149086009
:10055000BDE8FF9F14040140FA00002066663040A9
:100560007B14AE47E17A743F00010020FC000020BC
:1005700004010020FE00002008010020F8000020F7
:10058000F6000020D9CEF753E3A54C400C01002023
:10059000F40000201001002014010020260100209A
:1005A000240100202C0100206C00002018010020F4
:1005B0009C0000201C0100203C00002020010020A5
:1005C0000448006800F0020010B1022001490860F0
:1005D00070470000140401400448006800F0040063
:1005E00010B1042001490860704700001404014064
:1005F0000448006800F0080010B1082001490860B4
:10060000704700001404014010B50C48006800F069
:10061000100090B10521012001F04AF928B10848E5
:100620000068401E0649086004E005480068401C58
:100630000349086010200149086010BD14040140FE
:100640000C00002010B51D48006800F0200010B11B
:1006500020201A4908601948006800F0400090B155
:100660000221002001F024F928B115480068401E3D
:100670001349086004E012480068401C10490860F3
:1006800040200E4908600D48006800F0800010B15D
:1006900080200A4908600948006800F4807018B199
:1006A0004FF48070054908600448006800F4007049
:1006B00018B14FF400700149086010BD14040140E6
:1006C0000800002010B51948806940F00100174962
:1006D00088611748406820F0E06015494860084686
:1006E000406840F00070486000220D21012001F0B8
:1006F000F1F800220E21012001F0ECF800220F2178
:10070000012001F0E7F80948806940F0040007493A
:1007100088610848006820F0704006490860084673
:10072000006840F08040086010BD000000100240EA
:10073000000001400408014070B5054600240BE0AC
:10074000204600F041FD322000F038FD00F0B5FBFE
:1007500025F81400601CC4B2082CF1DB70BD10B584
:1007600002220621012001F0B5F802220721012012
:1007700001F0B0F801220721104601F07DF90122B5
:100780000621104601F078F910BD10B501220721AD
:10079000104601F071F901220621104601F06CF9B2
:1007A00000220621012001F067F910BD70B5002577
:1007B00001220721104601F05FF9002412E0012216
:1007C0000621104601F058F90721012001F070F8C8
:1007D00010B180202041054300220621012001F0B4
:1007E0004BF9641C082CEADB284670BD70B5054641
:1007F000002419E080202041284028B1012207214F
:10080000104601F039F904E000220721012001F02F
:1008100033F901220621104601F02EF900220621AB
:10082000012001F029F9641C082CE3DB70BD10B530
:1008300001220721104601F01FF90122062110466E
:1008400001F01AF900220721012001F015F9002218
:100850000621012001F010F910BD10B5002207217A
:10086000012001F009F901220621104601F004F9E6
:1008700001220721104601F0FFF810BD10B5002439
:1008800001220721104601F0F7F801220621104647
:1008900001F0F2F80721012001F00AF804460022D5
:1008A0000621012001F0E8F8204610BD2DE9F05F97
:1008B00004460D4616463046E16A02F009FE8046BF
:1008C000E16902F0FDFC0746A16A02F02DFBA0627F
:1008D000E06AE062D4E9060102F0F2FC8246E169D6
:1008E00002F0EEFC8046D4E9040102F01DFB8346D1
:1008F000E16902F0E5FC8246E16802F0DEFD814636
:10090000414602F011FB0746216802F00DFBE06052
:10091000D4E9060102F0D4FC0746216902F0CDFDBE
:100920002061D4E9060102F0CBFC0746616902F0C0
:10093000C4FD60616168A06902F0F6FAA061D4E9C3
:10094000021002F0F1FA07463946E06802F05AFB5D
:100950002062D4E9021002F0E7FA074639466069DE
:1009600002F050FB60622846A16A02F0B1FD8046A9
:10097000216A02F0A5FC0746A16A02F0D5FAA0623E
:100980002846A16A02F0A4FD8046616A02F098FC44
:100990000746E16A02F0C8FAE0624FF07E50216A31
:1009A00002F096FD0746E16802F08AFCE0604FF035
:1009B0007E50216A02F08CFD0746216902F080FC1E
:1009C0002061616AE06802F07BFC0746616902F021
:1009D00074FD6061616A206902F072FC0746A169DA
:1009E00002F06BFDA061A06ABDE8F09F70B53B20EE
:1009F00000F058F804463C2000F054F8054645EA5B
:100A0000042000B2214908803D2000F04BF8044644
:100A10003E2000F047F8054645EA042000B21C4994
:100A200008803F2000F03EF80446402000F03AF8ED
:100A3000054645EA042000B216490880432000F02C
:100A400031F80446442000F02DF8054645EA04201C
:100A500000B211490880452000F024F804464620E1
:100A600000F020F8054645EA042000B20B49088052
:100A7000472000F017F80446482000F013F8054618
:100A800045EA042000B20649088070BDF400002049
:100A9000F6000020F8000020FA000020FC000020F2
:100AA000FE00002070B50446FFF7C1FED020FFF71E
:100AB0009DFEFFF7E3FE2046FFF798FEFFF7DEFE00
:100AC000FFF7CBFEFFF7B3FED120FFF78FFEFFF756
:100AD000D5FEFFF76BFE0546FFF757FEFFF7BDFE9D
:100AE000284670BD014607238B431A02054B186840
:100AF0004FF6FF0318401043034B1843014B186097
:100B0000704700000CED00E00000FA0570B50546E6
:100B10000C460420FFF7E6FF0E48005D00F00106DA
:100B200046EA0510C1B20B4801552046E21704EB16
:100B3000D2625211A4EB421301229A402146E317DC
:100B400004EBD3635B119B0003F1E023C3F80021A6
:100B500070BD000000E400E070B500240EE000214C
:100B6000204600F0D5F8002504E0002000F095F9BB
:100B7000681CC5B2802DF8DB601CC4B2082CEEDB0B
:100B800070BD10B502220621012000F0A3FE022252
:100B90000721012000F09EFE01220621104600F0F0
:100BA0006BFF01220721104600F066FF10BD70B5F3
:100BB0000546002413E08020204100EA05020721B9
:100BC000012000F059FF01220621104600F054FFD9
:100BD00000220621012000F04FFF601CC4B2082C47
:100BE000E9DB01220621104600F046FF0022062123
:100BF000012000F041FF70BD10B501220721104611
:100C000000F03AFF01220621104600F035FF0022D5
:100C10000721012000F030FF00220621012000F012
:100C20002BFF10BD10B500220721012000F024FF8A
:100C300001220621104600F01FFF01220721104665
:100C400000F01AFF10BD70B5002406E0002500E09A
:100C50006D1CB5F57A7FFBD3641CB4F57A7FF5D3B0
:100C6000FFF78FFFAE2000F008F9D52000F005F95E
:100C7000802000F002F9A82000F0FFF83F2000F0EB
:100C8000FCF8D32000F0F9F8002000F0F6F840203E
:100C900000F0F3F8A12000F0F0F8C82000F0EDF823
:100CA000DA2000F0EAF8122000F0E7F8812000F0E6
:100CB000E4F8CF2000F0E1F8D92000F0DEF8F120D0
:100CC00000F0DBF8DB2000F0D8F8302000F0D5F899
:100CD000A42000F0D2F8A62000F0CFF88D2000F07C
:100CE000CCF8142000F0C9F8AF2000F0C6F8FFF7E8
:100CF00033FF0021084600F00BF870BD10B5024626
:100D0000012000E050430B1EA1F10101FAD110BDFA
:100D100070B505460C4645F0B00000F0AEF8102165
:100D200041EA141000F0A9F804F00F0000F0A5F853
:100D300070BD00002DE9F04105460E461746721EB3
:100D4000D206110E6A1E5206100EFFF7E1FF0024B4
:100D500009E0A7F12001134A02EB0111085D00F040
:100D60009CF8601CC4B2082CF3DB721ED206110E74
:100D70006A1E012303EB4202D0B2FFF7C9FF002431
:100D80000BE0A7F12001074A02EB011204F1080170
:100D9000505C00F082F8601CC4B2082CF1DBBDE8A6
:100DA000F0810000AA3600082DE9F04780460E4683
:100DB00017461D46002415E0281B411E0A20FFF798
:100DC0009DFFB7FBF0F00A21B0FBF1F201FB12002E
:100DD00000F130093019C1B24A464046FFF7AAFF78
:100DE000601CC4B2AC42E7DBBDE8F0872DE9F047F8
:100DF0008146884615461E46002D06DB2B224146BD
:100E00004846FFF797FF2F4605E02D22414648460A
:100E1000FFF790FF6F42002417E0301B411E0A20AD
:100E2000FFF76CFFB7FBF0F00A21B0FBF1F201FB1A
:100E3000120000F1300A08EB0400401CC1B2524617
:100E40004846FFF777FF601CC4B2B442E5DBBDE85B
:100E5000F0872DE9F04107460E461546002407E0CD
:100E60002A5D3019C1B23846FFF764FF601CC4B276
:100E7000285D0028F4D1BDE8F08110B50446FFF7E5
:100E8000BBFE7820FFF793FE0020FFF790FE204680
:100E9000FFF78DFEFFF7C6FE10BD10B50446FFF745
:100EA000ABFE7820FFF783FE4020FFF780FE204650
:100EB000FFF77DFEFFF7B6FE10BD10B50F21002035
:100EC00000F0F6FC10BD10B500F002F810BD0000F7
:100ED0000CB50020019000903348006840F4803049
:100EE0003149086000BF3048006800F400300090CD
:100EF0000198401C0190009818B90198B0F5A06FB6
:100F0000F1D12948006800F4003010B101200090B0
:100F100001E0002000900098012843D12348006898
:100F200040F01000214908600846006820F00300E6
:100F300008600846006840F0020008601A484068EF
:100F4000194948600846406848600846406840F4CF
:100F5000806048600846406820F47C10486008467D
:100F6000406840F4E81048600846006840F080702F
:100F7000086000BF0C48006800F000700028F9D03D
:100F80000948406820F00300074948600846406867
:100F900040F00200486000BF0348406800F00C00C9
:100FA0000828F9D10CBD00000010024000200240CA
:100FB00010B51348006840F0010011490860084668
:100FC0004068104908400E494860084600680E49CC
:100FD00008400B4908600846006820F4802008603B
:100FE0000846406820F4FE0048604FF41F00886007
:100FF000FFF769FF4FF000600449086010BD000072
:10100000001002400000FFF8FFFFF6FE08ED00E0D0
:101010004FF08040008A00F0010038B14FF080406E
:10102000008A20F001004FF08041088270470000E4
:1010300010B50948008800F0010060B100F024FFFD
:1010400006480068401C054908600348008820F0F5
:1010500001000149088010BD10040040000000207C
:101060000548008800F0010028B10348008820F0FE
:1010700001000149088070471008004005480088B9
:1010800000F0200028B10348008820F0200001492A
:1010900008807047003801400548008800F02000B3
:1010A00028B10348008820F02000014908807047DB
:1010B000004400400548008800F0200028B10348A3
:1010C000008820F020000149088070470048004057
:1010D000490050EAC12018BF04204A0D18BF40F053
:1010E000010040F2FF72B2EB515F08BF40F0020016
:1010F000012808BF052070472DE9F0414F1E00EB85
:10110000C7010446D1E9000115461E4637F0060224
:101110000DD02A46334601F0E7FC7F1E04EBC703DF
:10112000D3E9002301F0AEFA37F00602F1D1022F25
:1011300025D0042F13D0062F18BFBDE8F0812A4612
:10114000334601F0D1FCD4E90A2301F09BFA2A4688
:10115000334601F0C9FCD4E9082301F093FA2A468A
:10116000334601F0C1FCD4E9062301F08BFA2A468C
:10117000334601F0B9FCD4E9042301F083FA2A468E
:10118000334601F0B1FCD4E9022301F07BFA2A4690
:10119000334601F0A9FCD4E90023BDE8F04101F099
:1011A00071BA012202F03BBA01F06CBA024A002087
:1011B000110702F034BA000001FDFFFF01B50098ED
:1011C00000F010FA08BD000000BF00F0010121B1DD
:1011D0004FF40051134A116004E04FF40051114ADA
:1011E000121D116000BF00BFC0F3400121B14FF4D8
:1011F00080410C4A116004E04FF48041094A121DFD
:10120000116000BF00BFC0F3800121B14FF4004165
:10121000044A116004E04FF40041024A121D1160BB
:1012200000BF7047100C014000BF70472DE9F84F18
:1012300004460D4621F0004000917349814211DCC3
:101240007249884201DC06D12CB120462946BDE80E
:10125000F84FFFF7A6BF6E48002DCCBF6D496E4911
:10126000BDE8F88F6D49814211DD6D498142D8BFDB
:101270004FF0FF366DDD20462946FFF729FF042891
:1012800008BFFFF793FF20462946BDE8F88F654960
:10129000654F25F00045814233DD6449814219DD07
:1012A000002632464FF080432046294601F0EAF9F5
:1012B00080468A4601222046294602F0B0F90022E3
:1012C0003B4601F01BFD4246534601F08BFA0446B3
:1012D0000D463EE001260022BA463B4620462946FE
:1012E00001F0D0F980460F46002253462046294699
:1012F00001F004FD42463B4601F074FA04460D46F7
:1013000027E04B4981421BDDDFF828A1022600229D
:1013100053462046294601F0E7FB00223B4601F0F8
:10132000B1F980460F46002253462046294601F077
:10133000E5FC42463B4601F055FA04460D4608E0FE
:10134000032622462B4600203B4901F04BFA044677
:101350000D4622462B461046194601F0C5FB8B462A
:10136000824602460B4601F0BFFB07460246334861
:1013700088460B4606217844FFF7BEFE52465B4680
:1013800001F0B2FB82462E488B463A464346052181
:101390007844FFF7B1FE3A46434601F0A5FB02460A
:1013A0000B46002E504659460CDA01F06BF92246E6
:1013B0002B4601F099FB01B022462B46BDE8F04FC9
:1013C00001F090BC01F05EF922462B4601F08CFB47
:1013D0001C4A7A4402EBC603D3E9002301F08EFCD9
:1013E00022462B4601F08AFC174A7A4402EBC603D8
:1013F000D3E9002301F076FC009A002AB8BF81F0FF
:101400000041BDE8F88F0000000010440000F07FAC
:10141000182D4454FB21F93FFB21F9BF0000DC3FAC
:101420000000203E0000F33F0000F03F0000E63FD8
:10143000008003400000F83F0000F0BF8E2900004C
:101440004C290000EA280000B22800002DE9F04DE8
:101450009446CCF1000423F000464CEA0404524FB9
:1014600046EAD4749A46884621F00042BC4206D827
:10147000454240EA050442EAD474BC4204D9BDE8BE
:10148000F04D6246FFF790BEAAF14055A5F17F6589
:1014900055EA0C040BD0022404EAAA74434DDFF889
:1014A00010E144EAD87452EA000B04D00CE0BDE825
:1014B000F04DFFF7BBBE002C14BF012CBDE8F08D32
:1014C000022C30D0032C32D056EA0C0B0AD0BE428C
:1014D00020D1BA4209D126F0804622F0804233461C
:1014E000114617E000291ADB25E0DFF8C8B0FB44FD
:1014F000002C04BFDBE90001BDE8F08D012C02BF28
:10150000DBE9000181F00041BDE8F08D022C0AD03A
:10151000032C0CD0BA4212D1B8F1000F0BDA2348D9
:101520002549BDE8F08D28462449BDE8F08D2846C0
:101530007146BDE8F08D1D482149BDE8F08D921B34
:1015400012153C2AC4BF19481D490EDCBAF1000F20
:10155000BEBF12F13C0F0020014606DB624601F0DF
:1015600041F921F00041FFF761FE002C08BFBDE802
:10157000F08D012C04BF81F00041BDE8F08D114ACF
:10158000114B022C07D001F0B9FB2A46BDE8F04D03
:101590000A4B01F0B3BB01F0B1FB2A46BDE8F04DA8
:1015A000064B01F09FBB00000000F07F182D445453
:1015B000FB2109C046280000FB21F9BFFB2109409F
:1015C000FB21F93F075C143326A6A13C00B5034676
:1015D00003E04FF47A7000F005F8181EA3F1010340
:1015E000F7D100BD00EBC001C9004FF0E02251610E
:1015F000002191610521116100BF4FF0E0210969CF
:1016000001F480310029F8D004214FF0E02211616B
:1016100070470000014609B1082901DD002070472C
:10162000481E024A12F81000F9E70000CC01002021
:1016300010B500220121122000F010F80122022131
:10164000002000F047F9002201210D2000F006F8EB
:1016500001220521104600F03DF910BD2DE9F047AB
:1016600004460E461746032194FBF1F0C11700EB28
:1016700091718910A0EB810189064FEA116803215D
:1016800094FBF1F0C11700EB9171C1F3870520467F
:1016900000F06AF83148806940F001002F49886104
:1016A0004FEAB13050F825000F2101FA08F18843C4
:1016B0002B4941F82500032094FBF0F100FB114079
:1016C00088B1032094FBF0F100FB1140401E012182
:1016D00001FA00F000FA08F0214951F82510014301
:1016E0001F4840F82510032094FBF0F101208840AA
:1016F0001C49096808431B49086066B9032094FB2C
:10170000F0F101208840174908310968084315495C
:10171000083108600BE0032094FBF0F101208840C1
:1017200010490C31096808430E490C310860032048
:1017300094FBF0F004280ADC032094FBF0F0801DF9
:1017400000F0FF0949463846FFF7E0F903E01721AA
:101750003846FFF7DBF9BDE8F087000000100240D3
:10176000080001400004014010B50446182C12D2B4
:10177000DFE804F00C12181E242A30363C42484E92
:10178000545A60666C72787E848A90960122002199
:10179000084600F09FF889E001220021104600F081
:1017A00099F883E001220021022000F093F87DE007
:1017B00001221146002000F08DF877E00122114649
:1017C000104600F087F871E001221146022000F077
:1017D00081F86BE001220221002000F07BF865E037
:1017E00001220221104600F075F85FE0012202217B
:1017F000084600F06FF859E001220321002000F0B4
:1018000069F853E001220321104600F063F84DE02F
:1018100001220321022000F05DF847E001220421AB
:10182000002000F057F841E001220421104600F0AA
:1018300051F83BE001220421022000F04BF835E092
:1018400001220521002000F045F82FE001220521AA
:10185000104600F03FF829E001220521022000F0A7
:1018600039F823E001220621002000F033F81DE0C2
:1018700001220621104600F02DF817E00122062172
:10188000022000F027F811E001220721002000F0DB
:1018900021F80BE001220721104600F01BF805E0BB
:1018A00001220721022000F015F800BF00BF10BD83
:1018B00010B50246064850F82200806801248C408A
:1018C00000EA04030BB1012010BD0020FCE700007A
:1018D000CC00002070B5664CA469042585402C43DB
:1018E000634DAC6108295DDA624C54F820402468ED
:1018F0008E000F25B540AC435E4D55F820502C604E
:101900001AB1032A01D0022A0FD10124944044F0D5
:1019100003048D00AC40574D55F820502D682C43E2
:10192000544D55F820502C60A1E0012A01D0042A22
:101930002AD1504C54F8204024688E000825B54028
:101940002C434C4D55F820502C60012A0ED1494CA7
:1019500054F82040E46801258D4024EA0503012461
:101960008C401C43434D55F82050EC60042A7ED136
:10197000404C54F82040E56801248C40A5433D4C80
:1019800054F82040E56072E0042494408D00AC409F
:10199000384D55F820502D682C43364D55F82050C1
:1019A0002C6064E0334C54F820406468A1F10805D1
:1019B000AE000F25B540AC432E4D55F820506C605D
:1019C0001AB1032A01D0022A11D10124944044F013
:1019D0000304A1F10805AD00AC40264D55F8205098
:1019E0006D682C43234D55F820506C603FE0012A70
:1019F00001D0042A2CD11F4C54F820406468A1F176
:101A00000805AE000825B5402C431A4D55F8205066
:101A10006C60012A0ED1174C54F82040E56801246F
:101A20008C4025EA040301248C401C43114D55F8D9
:101A30002050EC60042A1AD10E4C54F82040E5687E
:101A400001248C40A5430B4C54F82040E5600EE087
:101A500004249440A1F10805AD00AC40054D55F8B3
:101A600020506D682C43034D55F820506C6070BDBC
:101A700000100240CC00002030B57AB10D4C54F873
:101A80002040E46801258D4024EA050301248C40B0
:101A90001C43084D55F82050EC600AE0054C54F802
:101AA0002040E46801258D40AC43024D55F820509C
:101AB000EC6030BDCC00002008B5FFF7C4F800F0A2
:101AC00023F9FFF7B5FD00224FF4E131104600F095
:101AD00049FD00205E4B5F4A012100905E4800F006
:101AE00023FA00205A4B5B4A012100905B4800F02A
:101AF0001BFAFEF734FE002211460120FFF7AEFD6F
:101B000000226421012000F0C3FBFEF7DBFD9EE014
:101B10005348FEF711FE00F0F3FB0120FFF77AFDBA
:101B200004460123224619461846FFF73DF90220D4
:101B3000FFF770FD04460123224603211846FFF7F4
:101B400033F90320FFF766FD0446012322460521F1
:101B50001846FFF729F90420FFF75CFD044601232E
:101B6000224607211846FFF71FF90520FFF752FD0F
:101B700004460123224609211846FFF715F90620DD
:101B8000FFF748FD0446012322460B211846FFF7C4
:101B90000BF90720FFF73EFD0446012322460D21E5
:101BA0001846FFF701F90820FFF734FD044601232A
:101BB00022460F211846FFF7F7F82A4A0121022092
:101BC000FFF747F928A206210220FFF742F9224930
:101BD000086801F0D9FA04460323224608210220AE
:101BE000FFF7E2F821A20C210220FFF732F91B498E
:101BF000086801F0C9FA0446032322460E21022098
:101C0000FFF7D2F81AA20B210220FFF722F919A23E
:101C100001210320FFF71DF904231748032102685F
:101C20000846FFF7E3F815A209210320FFF711F991
:101C3000042313480B2102680320FFF7D7F811A2F1
:101C400001210420FFF705F95020FFF7BFFC5FE7F3
:101C5000000020420000704230010020640100209A
:101C6000CC01002014000020413A0000423A00005C
:101C7000200000004531000008000020453200002F
:101C80000C000020202020202020202020202020A8
:101C9000202020200000000010B50446A2B2002140
:101CA000084600F06BFA0948027805210020FFF78A
:101CB000E3FE0648007808B9012000E00020024653
:101CC00007210020FFF7D8FE10BD0000040000200F
:101CD00010B50446A2B20121002000F04FFA0948D5
:101CE000027804210020FFF7C7FE0648007808B9F3
:101CF000012000E00020024603210020FFF7BCFE87
:101D000010BD00000500002010B500220C210120AC
:101D1000FFF7E0FD01220C211046FFF7ADFE4FF466
:101D20007A720021084600F01BF94FF47A72012103
:101D3000002000F015F9002205211046FFF7CAFD2A
:101D4000002207211046FFF7C5FD0022042110469E
:101D5000FFF7C0FD002203211046FFF7BBFD10BDB9
:101D600070B505460C46002D08DB002011490870AF
:101D7000284601F045FA1049086007E001200D49A6
:101D80000870684201F03CFA0B490860002C08DB3F
:101D900001200A490870204601F032FA084908601B
:101DA00007E0002005490870604201F029FA044963
:101DB000086070BD040000203001002005000020F4
:101DC000640100202DE9F0410446D4E9000101F04E
:101DD0007FFBA060206B01282DD1D4E9020101F026
:101DE00077FB0546616901F06BFA2062A168A06982
:101DF00001F066FAA0624FF08040E16801F060FAFD
:101E00000746A16801F059FB0646216901F08CF8EC
:101E10000546E16901F054FA6062A16A206A01F0A6
:101E200083F80646616A01F07FF80546E16A01F031
:101E30007BF8E06221E0206BF8B9A168606901F0ED
:101E40003FFA2062A168A06901F03AFA0546A16A4A
:101E500001F06AF8A062D4E9020101F039FB0546FD
:101E6000E16901F02DFA6062A16A206A01F05CF874
:101E70000546616A01F058F8E062E1682161A168F5
:101E8000E160BDE8F081000010B52148007830B174
:101E90002048006801F0B4F91F49486006E01D4879
:101EA0000068404201F0ACF91B4948601B480078CB
:101EB00030B11B48006801F0A3F91A49486006E0F8
:101EC00017480068404201F09BF91649486000201D
:101ED00010490860124908600F48FFF773FF114866
:101EE000FFF770FF0C4800F027F80E4800F024F8C8
:101EF0000949C86A01F048F90446FFF7CDFE0949CF
:101F0000C86A01F041F90446FFF7E2FE10BD000087
:101F100004000020080000203001002005000020FF
:101F20000C0000206401002010B5029C0163426196
:101F30008361C46110BD000010B504460749E06A22
:101F400001F08AFA01D80548E0620021E06A01F058
:101F500083F901D80020E06210BD00000050434723
:101F60002DE9F04104460D4616462846E91705EBD3
:101F700091718910A5EB8101491CCFB25148C0690C
:101F80000121A14008434F49C8614F4890FBF6F03A
:101F9000401E4E4951F82410888547204B4951F87E
:101FA00024100885284600F093F8012F06D0022F50
:101FB0001ED0032F36D0042F69D14DE0434850F88E
:101FC0002400008B40F06000404951F82410088341
:101FD0003E4850F82400008B40F008003B4951F87F
:101FE000241008830020394951F8241088864EE0D7
:101FF000364850F82400008B40F4C040334951F873
:1020000024100883314850F82400008B40F400600D
:102010002E4951F82410088300202C4951F824102F
:10202000088734E0294850F82400808B40F0600095
:10203000264951F824108883244850F82400808BC6
:1020400040F00800214951F82410888300201F49DE
:1020500051F8241088871AE01C4850F82400808B1F
:1020600040F4C040194951F824108883174850F8AB
:102070002400808B40F40060144951F824108883B8
:102080000020124951F82410A1F8400000BF00BF01
:102090000E4850F82400008C791E8A0001219140DE
:1020A00008430A4951F824100884084850F82400CD
:1020B000008840F08100054951F824100880BDE8EF
:1020C000F08100000010024040420F00D8000020C4
:1020D00010B504460C2C4FD2DFE804F0060C1218A1
:1020E0001E242A30363C4248032200210846FFF7CE
:1020F000F1FB41E0032201210020FFF7EBFB3BE075
:10210000032202210020FFF7E5FB35E00322114600
:102110000020FFF7DFFB2FE0032206210020FFF75E
:10212000D9FB29E0032207210020FFF7D3FB23E09E
:10213000032200210120FFF7CDFB1DE00322012136
:102140000846FFF7C7FB17E0032206210120FFF72F
:10215000C1FB11E0032207210120FFF7BBFB0BE0CD
:10216000032208210120FFF7B5FB05E00322092126
:102170000120FFF7AFFB00BF00BF10BD2DE9F84FF6
:1021800004460D4617462846E91705EB917189105C
:10219000A5EB8101491C01F0FF084CF25030874249
:1021A00000DB0746384850F82400868DB8F1010F4F
:1021B00009D0B8F1020F1DD0B8F1030F31D0B8F13A
:1021C000040F5DD144E0701C01F01AF883463846D4
:1021D00001F02EF82D49009000F014FF8246594678
:1021E00001F06EF8814600F0EBFF274951F824100A
:1021F000888645E0701C01F003F80090384601F035
:1022000017F88346214900F0FDFE8246009901F04F
:1022100057F8814600F0D4FF1B4951F82410088775
:102220002EE0701C00F0ECFF0090384601F000F842
:102230008346164900F0E6FE8246009901F040F818
:10224000814600F0BDFF104951F82410888717E03F
:10225000701C00F0D5FF0090384600F0E9FF83467F
:102260000A4900F0CFFE8246009901F029F8814624
:1022700000F0A6FF044951F82410A1F8400000BF67
:1022800000BFBDE8F88F0000D80000200050434791
:1022900070B504460D4616461748C0690121A14095
:1022A00008431549C86105EB85004000401E1349ED
:1022B00051F82410888541F61F40104951F8241028
:1022C00008850E4850F82400008840F001000B49B2
:1022D00051F824100880094850F82400808940F003
:1022E0000100064951F82410888104F11C00C1B294
:1022F0003046FEF70BFC70BD00100240D8000020F5
:102300002DE9FC5F0120FFF785F980460220FFF7E9
:1023100081F981460320FFF77DF982460420FFF70B
:1023200079F906460520FFF775F907460620FFF7FD
:1023300071F983460720FFF76DF901900820FFF738
:1023400069F90090012E01D1012F07D0012E01D192
:10235000012F03D1012E08D0012F06D144A14648F8
:10236000FDF753FF192419257CE0BAF1010F08D1BC
:10237000012E06D041A14048FDF747FF0C24192546
:1023800070E0B9F1010F06D13EA13B48FDF73DFFDA
:102390000824122566E0B8F1010F06D13BA13648AA
:1023A000FDF733FF042419255CE0BBF1010F08D1D0
:1023B000012F06D037A13048FDF727FF19240C253F
:1023C00050E00198012806D134A12B48FDF71DFFEC
:1023D0001224082546E00098012806D131A126489C
:1023E000FDF713FF192404253CE0B8F1000F16D1C6
:1023F000B9F1000F13D1BAF1000F10D17EB977B93E
:10240000BBF1000F0BD1019848B9009838B927A14A
:102410001948FDF7FAFE6FF00B040C2522E0B8F125
:10242000010F19D1B9F1010F16D1BAF1010F13D172
:10243000012E11D1012F0FD1BBF1010F0CD1019849
:10244000012809D10098012806D11AA10A48FDF7F0
:10245000DCFE1924192505E018A10748FDF7D5FE73
:102460001224122529462046FFF77AFCBDE8FC9F7E
:10247000474F20200000000014000020523120208F
:1024800000000000523220200000000052332121C1
:10249000000000004C312020000000004C322020C1
:1024A000000000004C3321210000000046494E444A
:1024B0000000000043524F53530000002D2D2D2DDE
:1024C000000000002DE9F04F89B081468A46B9F13D
:1024D000000F01D11F4C00E01F4C4FEA0A1094FB83
:1024E000F0FB584600F0EDFACDE90401504600F04B
:1024F000D1FA07460022194B00F0F6FA05460E46BF
:10250000204600F07DFE074600F0E2FC2A463346F6
:10251000CDE9000100F066F9CDE90201DDE904230F
:1025200000F0ECFBCDE9060100F07AF808904FF0DE
:102530008341089800F0C4FE0890089800F040FE1F
:1025400000EB0B10064951F82910088109B0BDE8CD
:10255000F08F000000A24A04005125020000304024
:10256000E400002070B504460E46154634B9144800
:10257000806940F480401249886108E01048C069D1
:1025800004F1100101228A4010430D49C861204620
:1025900000F01AF831462046FFF794FF094850F83A
:1025A0002400808942F22C010843064951F8241086
:1025B000888104F12500C1B22846FEF7A7FA70BD54
:1025C00000100240E400002010B5044624B1012CA4
:1025D0000DD0022C21D115E0032209210020FFF7A4
:1025E00079F904220A210020FFF774F915E003228B
:1025F00002210020FFF76EF9042203210020FFF7DB
:1026000069F90AE003220A210120FFF763F9042295
:102610000B210120FFF75EF900BF00BF10BD0000D5
:1026200021F00042A2F16052B2F5801F01F0004398
:1026300028BFD2F17F6C0BD95FEA001C43EAC202CB
:1026400042EB507018BF704728BF20F00100704760
:10265000B2F5801FBCBF184670474FEA410C1CF50D
:10266000001F02D2084600F0F2BE70B500F0E6FA94
:1026700000000089FFF7F6BF4FF00040A0F5800092
:102680007047000010B591EA030F48BF83F0004384
:1026900000F13C83841A71EB030C05D2121943EB51
:1026A0000C03001B61EB0C01DFF824E14FEA11542D
:1026B000A4EB135C1EEA430F18BF9EEA445F73D07D
:1026C00023EA0E03DCF1200E21EA045143F48013C7
:1026D00032D322FA0CFE10EB0E0023FA0CFE41EB73
:1026E0000E01CCF1200E03FA0EFE10EB0E0051F19C
:1026F0000001B1F5801FCCF1200E32D201EB045164
:1027000012FA0EF2BDE8104058BF7047401C38BFA7
:102710005FEA420218BF7047002814BF20F0010092
:1027200041F100014FEA410313F5001F38BF704724
:10273000A1F1C04100F0D0BA012A43EB0302ACF191
:10274000200CDCF11F0E32BF4FF0000E23FA0CF309
:1027500010EB030041EB0451B4EB115FD0D0A1EBBF
:10276000045101F5801149085FEA300001EB045182
:102770000ED350F1000038BF12FA0EFE08D1BDE8AA
:102780001040C9E7401C38BF5FEA4202CAD1C3E724
:10279000BDE810404FEA410313F5001F38BF7047F2
:1027A000A1F1C04100F098BA9EEA445F08D011EA56
:1027B0005E0FBDE8104004BF01F0004100207047EB
:1027C000BDE8104070B500F039FA00BF64FBBE3EB2
:1027D0000000E0FF02494FF0000000F0EEBE00BF35
:1027E0000000F87F2DE9C04130B4DFF8A0C23CEA18
:1027F000111418BF3CEA131400F0EC8081EA0305C1
:102800001CEA111444EAD57418BF1CEA131500F031
:10281000C780A4EB05044FF0004545EAC12145EA15
:10282000C32341EA505143EA525304F17F74994261
:1028300004F500344FEAC0204FEAC22208BF90429C
:1028400000F09C804FEA13650FF24016765D4FEA68
:10285000134506FB05F7C7F1807706FB07F74FEA3C
:10286000D737A7FB03687642C8F58038A7FB06CEAA
:1028700038BFA8F1010807FB08E64FF0000EA6FBE1
:10288000028CE6FB03CEDCF1000CCEF1004E38BF2B
:10289000AEF1010EA6FB0C584FF000074FF00005FB
:1028A000E6FB0E87A1FB08C6A0FB07CE16EB0E06C3
:1028B00045F10005E1FB076515F1E04E7EBFA4F58B
:1028C00080345FEA46066D4116F1800745F1000548
:1028D0004FEA17274FEA066647EA0567A6F1DE4684
:1028E000B6F1805F4FEA15251FD9384624F0010C58
:1028F00005EBC471BCF1FE6F01EB0C1102D8F0BC0A
:10290000BDE8008124425CBF01F5801E9EEAC47FC1
:1029100002D4F0BCBDE80081244238D4F0BCA1F15F
:10292000C041BDE8004100F0D7B94FEAD22242EAE7
:1029300043524FEAD323A7FB02864FEAD02040EA56
:10294000415007FB03661EEA0E0F4FEAD12105FB3B
:10295000026658BFA6EB0056B6EB00564FEA520E81
:102960004EEAC37E18EB0E0E56EB530EBDD518EB98
:1029700002085E417F1C55F10005B6E74FF4801553
:102980004FF000074FF000064FF00008ADE7F0BC35
:102990004FF0000001F1C04101F00041BDE80081AD
:1029A00011EA0C1F0CEA131500D00CE013EA0C1FFF
:1029B00000F025804FF00000F0BC81EA030101F037
:1029C0000041BDE80081F0BCBDE8004181EA03019F
:1029D00000F082B9F0BCBDE8004170B500F02EF9FE
:1029E000097EFC3E00F007B881EA03014FF00000C9
:1029F00001F00041704781EA030100F06DB9F0BCBD
:102A0000BDE800414FF0000021497047FFFDFBF990
:102A1000F7F5F4F2F0EEEDEBE9E8E6E4E3E1E0DE11
:102A2000DDDBDAD8D7D5D4D3D1D0CFCDCCCBCAC883
:102A3000C7C6C5C4C2C1C0BFBEBDBCBBBAB9B8B7AA
:102A4000B6B5B4B3B2B1B0AFAEADACABAAA9A8A89D
:102A5000A7A6A5A4A3A3A2A1A09F9F9E9D9C9C9B6B
:102A60009A99999897979695959493939291919016
:102A70008F8F8E8E8D8C8C8B8B8A898988888787A7
:102A80008685858484838382828181800000FF071C
:102A90000000F87F10F0004248BF4042B0FA80F3D7
:102AA00010FA03F10AD0C3F11D0303F580634FEA66
:102AB000415002EB035202EBD12170474FF000006E
:102AC0007047B0FA80F310FA03F10AD0C3F11D0386
:102AD00003F580634FEA41504FEA035202EBD121E4
:102AE00070474FF000007047DFF848C170B51CEA2E
:102AF000111E1EBF1CEA13159EEA0C0F95EA0C0F5F
:102B000000F06F8081EA030423EA4C134EEAD47E7E
:102B100021EA4C1141F4801143F48013AE44A1FB2F
:102B2000024CA0FB0365AEF17F7E361955EB0C0518
:102B3000A1FB034C4CF10003A0FB021C16EB0C069E
:102B4000654153F10003094218BF46F0010613F432
:102B5000007F0BD14FEA03314FEA0530340341EADD
:102B6000155140EA16506FF003020AE04FEAC32104
:102B70004FEAC520F40241EA555140EA56506FF041
:102B8000020202EB2E4201EB025585EACE710AD019
:102B90005FEA440C18BF24F0004450F1000041F1FA
:102BA000000120EAD47040F2FE7C624500D270BD84
:102BB000A84214BF4FF080444FF04044002E08BF9D
:102BC0000024BEF1806FA8BFA1F1C041BDE87040F4
:102BD00080F282804FF0000001F1C04101F000411D
:102BE00070479EEA0C0F0CEA131518BF95EA0C0FFC
:102BF00006D04FF0000081EA030E0EF0004170BDD8
:102C000000F01CF88900013E00F007B800F009B898
:102C10004FEA430C5FEA5C5C08D081EA030100F0F4
:102C20005BB84FEA410C5FEA5C5CF6D14FF0000004
:102C3000014970470000FF070000F87F0EF1020E07
:102C40002EF0030E5EF8046B364205D4012A43EBE6
:102C5000030515F5001F12D8012841EB010C1CF5E6
:102C6000001F0CD80ED14FEAD17C15F5001F0CEBDC
:102C70004C0C0CF1020C08BF4CEBD37C04E04FF081
:102C8000080C01E04FEAD37C0CEB4C0526FA05F664
:102C900006F00706B6F1040C06D20EEB860CBDE872
:102CA00070404CF0010C6047DFE80CF0090B0202A9
:102CB0004FF000414FF00000A1F5002170BD194612
:102CC0001046012851EB010418BFD4F5001484BF4D
:102CD000002001F0004170BD0808A0F500114FEA86
:102CE0003101704791EA030F10B581F000413FF5C3
:102CF000D1AC83F0004300F009B8000010B591EAB0
:102D0000030F48BF83F000433FF5C4AC841A71EB56
:102D1000030C07D212198CF0004C43EB0C03001B80
:102D200061EB0C01DFF8A4E14FEA1154A4EB135C52
:102D30001EEA430F18BF9EEA445F00F0B08023EA0A
:102D40006E03524221EA0451C3EB6E0338BF5B1E8F
:102D5000DCF1200E25D322FA0CFE10EB0E0043FA14
:102D60000CFE41EB0E01CCF1200E03FA0EFE10EB2F
:102D70000E0051F10001CCF1200E29D412FA0EF20E
:102D800001EB0451BDE8104058BF7047401C1CBF08
:102D9000B2F1004F704700280CBF491C20F0010021
:102DA000704712EB020E43EB030218BF4FF0010E07
:102DB0004EEA4202ACF1200CDCF11E0E54D943FA6B
:102DC0000CFE10EB0E0051F1FF31CCF11E0ED5D5EB
:102DD0000EF1010E12FA0EFE404141EB010101EB32
:102DE000445C5FEA5C5C10D910EBDE7001EB0451CF
:102DF00038BFBEF1004FBDE8104018BF7047002833
:102E00000CBF491C20F00100704730D24FEAD42C8F
:102E100011F5001124F400641BD0B1FA81F20B3AD1
:102E2000A41AA41ED2F12003914030FA03F31943EF
:102E3000904001EBCC71002C01EB0451BDE8104037
:102E4000A8BF704701F1C0414FF0000001F0004100
:102E50007047B0FA80F310FA03F100D110BDE41A04
:102E6000173C4805C90AE4E701EB045110BD4910BD
:102E700001EB0451BDE810404FEA300002E04FF092
:102E8000000170474A0008BF0042F8D0B2F5001FA9
:102E900028BF704701F000414FF0000070479EEAE4
:102EA000445F07D011EA5E0FBDE8104004BF002167
:102EB00000207047BDE8104070B5FFF7BFFE00BFAF
:102EC00040DFF63E83F00041104670470000E0FF0F
:102ED00043004FEAD30C4FEA3C0C43401FBF40076E
:102EE0000CF1605113F0FE4F70471CF0006F03D1DE
:102EF00000200CF0004170470CF0004343EA507092
:102F000010B540EACC0000F05CFA00BF000000926F
:102F10004FEA0001FFF7E0BE4FF000414FF0000024
:102F2000A1F500217047000090EA010F48BF81F031
:102F3000004100F1D482421A3CBF801A89184FEA3E
:102F4000D0524FF07F4C1CEA410FA2EBD15318BF77
:102F50009CEA026F00F03B804FF0004C4CEA0020EE
:102F60004CEA012121FA03FC10EB0C0C1ED202F1F9
:102F7000FF325FEA1C2040EBC25038BF70471CF0A4
:102F80007F0F4FEA400C18BFBCF17F4F38BF70472E
:102F9000C3F12003994008BF20F00100BCF17F4F2E
:102FA00038BF7047A0F1C04000F051BA4FEA3C0072
:102FB000000A40EBC25028BF1CF0FF0F4FEA400C44
:102FC000E6D018BFBCF17F4F38BF7047EAE79CEAF4
:102FD000026F05D010EA5C0F08BF00F00040704798
:102FE00010B500F0EEF900BF64FBBE3E401058BFC4
:102FF000C0F14040491058BFC1F140418142EFF358
:10300000008070474FF47F0C1CEAD0121EBF1CEAF0
:10301000D11392EA0C0F93EA0C0F00F0858090EA2E
:10302000010F48BF42F4807240F4000C41F40000EC
:103030002CF07F4120F07F4000B58142A2EB0302DB
:103040000FF2081CACEB504EC0F100009EF800E0FF
:103050004FEA4E0E00FB0EFC38BF49004FEA2C1C15
:1030600002F5FA020CFB0EF34FEACE1E4FEA112CCA
:103070004FEAC1210EEB635E42EB22420EFB0CFCD9
:103080004FEA1C5300FB03114FEA112C4FEA0131A8
:103090000EFB0CFC4FEADC4C00FB0C11C14228BFBC
:1030A00009184CEB03335DF804EB10EB410143EBE3
:1030B000C250B2F57C0F38BF704729D512F0F00F1F
:1030C0001CBF00F1C04000F00040704700818283C7
:1030D0008485868788898B8C8D8E8F919293959627
:1030E00097999A9C9D9FA0A2A3A5A7A8AAACAEB0B1
:1030F000B2B3B5B7B9BCBEC0C2C5C7C9CCCED1D4B6
:10310000D7D9DCDFE2E6E9ECF0F3F7FAFE000000E5
:103110004FEA400C0CF1807CBCF17E4F28BF704719
:10312000B0F1C04000F093B990EA010F0CEAD1135E
:1031300048BF42F48072624538BF634507D213F43A
:103140007F0F16D080EA010000F00040704710B5F4
:1031500000F037F9097EFC3E00F005B880EA010076
:1031600000F00040704780EA010000F0004000F0ED
:103170006EB912F47F0F04BF0248704780EA010065
:1031800000F065B90000C07F41000B0ED3F19E0234
:1031900008D950F400034FEA032323FA02F048BF92
:1031A0004042704710B500F00CF900BF49922480EE
:1031B000002070476FF0004282EA20007047000054
:1031C000C10DD1F19E0206DB4FEA002343F000431C
:1031D00023FA02F07047004207D54FEA4001B1F1EF
:1031E000FE4F02D24FF00000704710B500F0E9F832
:1031F00049922480002070476FEA20007047000049
:1032000010F0004148BF4042B0FA80F310FA03F2D8
:10321000C3F19D030BD051EAC35101EB12205306B9
:1032200038BF704700F1010008BF20F0010070476F
:10323000B0FA80F310FA03F2C3F19D030AD0D90566
:1032400001EB1220530638BF704700F1010008BFA0
:1032500020F001007047000050EA010C00F11380DB
:103260001CF5000F58BFBCF5000F01D48842704711
:1032700007D710F5000F58BF11F5000F15D488427D
:103280007047894270471CF5000F04D5BCF5000F4C
:10329000F7D5814270474FF0807C1CEB400F38BF60
:1032A0001CEB410F01D28142704710B500F089F844
:1032B000922449004FF000504FF08051FFF796BE26
:1032C0004FF47F0C1CEAD0121EBF1CEAD11392EA05
:1032D0000C0F93EA0C0F00F0478090EA010F48BFF3
:1032E00042F480724FF0004C4CEA00204CEA01217D
:1032F00002EB0302A0FB0113A2F50002002918BF94
:1033000043F001035B0028BF4FEA330342EB224244
:103310005FEA132C4CEBC2502EBFBCEB436FB2F5EF
:103320007C0F70474FEA036CBCF1004F08BF20F0E0
:103330000100B2F57C0F38BF70470BD582F0FF0259
:1033400012F5803FC8BF704700F1C040D8BF00F001
:103350000040704700F5000C5FEA4C0C48BF704716
:10336000B0F1C04000F073B890EA010F0CEAD1133D
:1033700048BF42F48072624538BF634504D280EA98
:10338000010000F00040704710B500F01AF800BFCF
:103390008900013E00F007B800F009B85FEA410C6F
:1033A0005FEA1C6C08D080EA010000F050B85FEAC8
:1033B000400C5FEA1C6CF6D14FF00040A0F5800095
:1033C00070470EF1020E2EF0030E5EF8044B2442FD
:1033D00004D44FEA4102B2F17F4F11D84FEA4003C3
:1033E000B3F17F4F0CD80ED14FEAD07CB2F17F4FB2
:1033F0000CEB4C0C0CF1020C08BF4CEBD17C04E044
:103400004FF0080C01E04FEAD17C0CEB4C0324FA9E
:1034100003F404F00704B4F1040C06D20EEB840CA0
:10342000BDE810404CF0010C6047DFE80CF00708E5
:1034300002024FF00040A0F5800010BD0846420097
:1034400018BFD2F1807288BF00F0004010BDFF218C
:1034500041EAD050C005704751EA000C00F11380DA
:103460001CF5000F58BFBCF5000F01D48142704716
:1034700007D711F5000F58BF10F5000F15D4814282
:103480007047894270471CF5000F04D5BCF5000F4A
:10349000F7D5884270474FF0807C1CEB410F38BF56
:1034A0001CEB400F01D28842704780EA010081EA9C
:1034B000000180EA0100FFF7F8BE80F0004090EACA
:1034C000010F7FF538AD81F0004100F008B8000031
:1034D00090EA010F48BF81F000413FF52CAD421A40
:1034E00004D882F00042A0EB020011444FEAD0520F
:1034F0004FF07F4C1CEA410FA2EBD15318BF9CEA5E
:10350000026F4AD04FF0004C4CEA00204CEA0121F7
:1035100021FA03FCB0EB0C0C0FD412F0FE0F36D0E6
:103520005FEA4C001DD5001240EBC25038BF704717
:103530001CF03F0F18BF70470BE0A2F101025FEAD9
:103540001C2040EBC25038BF70471CF07F0F18BFE3
:103550007047C3F12003994014BF401E20F00100C2
:10356000704780084FEA122308BF7047B0FA80FC0A
:10357000A2EB0C02CCF1280C60FA0CF093EA122FAB
:1035800004BF00EBC25070474FEAC3707047130A84
:103590005FEADC1008BF7047F6E79CEA026F04D0D0
:1035A00010EA5C0F08BF0020704710B5FFF709FF55
:1035B00040DFF63E81F0004070470CF00F03092B0E
:1035C00008BF082000F059800A2B0BD0082B18BF29
:1035D000704708BF1CF0400F0AD04FF000004FF0BA
:1035E000000170471CF0400F18BF4FF000407047BB
:1035F0001CF0100F08D020F0704300F07F4242EA28
:10360000D3014FEA4370704700F0604021F07F42E1
:1036100042EA000201F07F4040EA727070474FF0CA
:10362000FF0C4CF4E06C1CEA11531CBF9CEA030C29
:103630009445C2BFDA4201EB02517047002B0DD016
:10364000BCF1000F0FD0002A01F00041A4BF41F0EF
:10365000E04141F07F614FF00000704701F0004110
:103660004FF00000704750EA01334FF09B0C18BF39
:103670004CF0806C7FF4AEA870471CF4801F11D012
:103680001CF4E02F03D06FEACC31490070474FF0B3
:103690004050EFF3008222F0704242EA000282F3CF
:1036A000008870474FF000007047000000000000E5
:1036B00000000000000000000000000000F8000012
:1036C0000000000000333000000000100C06100C59
:1036D0000600000000000000000040C07840C078F4
:1036E0004000043F04043F040400007088FC0830DC
:1036F0000000001820FF211E0000F008F000E01874
:10370000000000211C031E211E0000F0088870002C
:1037100000001E2123241927211010160E0000007E
:1037200000000000000000000000000000E018049D
:103730000200000000071820400000020418E0000A
:1037400000000040201807000000404080F080404A
:1037500040000202010F01020200000000F0000020
:1037600000000101011F0101010000000000000034
:10377000000080B0700000000000000000000000A9
:103780000000000101010101010100000000000032
:1037900000000030300000000000000000008060E9
:1037A0001804006018060100000000E0100808106E
:1037B000E000000F102020100F00001010F8000093
:1037C00000000020203F202000000070080808882A
:1037D00070000030282422213000003008888848FA
:1037E00030000018202020110E000000C02010F82A
:1037F000000000070424243F240000F808888808FB
:1038000008000019212020110E0000E010888818FF
:103810000000000F112020110E0000380808C838E1
:1038200008000000003F00000000007088080888C1
:103830007000001C222121221C0000E0100808104A
:10384000E0000000312222110F00000000C0C00083
:103850000000000000303000000000000080000088
:103860000000000080600000000000008040201088
:103870000800000102040810200040404040404081
:1038800040000404040404040400000810204080E4
:103890000000002010080402010000704808080819
:1038A000F0000000003036010000C030C828E810E9
:1038B000E0000718272423140B000000C038E000A4
:1038C0000000203C23020227382008F888888870EE
:1038D0000000203F202020110E00C03008080808FA
:1038E0003800071820202010080008F808080810E1
:1038F000E000203F202020100F0008F88888E8080A
:103900001000203F20202320180008F88888E808AD
:103910001000203F200003000000C03008080838D5
:10392000000007182020221E020008F808000008E6
:10393000F808203F210101213F20000808F808086D
:1039400000000020203F2020000000000808F808A8
:103950000800C08080807F00000008F888C0281818
:103960000800203F20012638200008F80800000049
:103970000000203F20202020300008F8F800F8F850
:103980000800203F003F003F200008F830C000083A
:10399000F808203F200007183F00E0100808081032
:1039A000E0000F10202020100F0008F80808080879
:1039B000F000203F210101010000E010080808107C
:1039C000E0000F18242438504F0008F888888888B1
:1039D0007000203F2000030C302000708808080889
:1039E00038000038202121221C00180808F8080897
:1039F00018000000203F2000000008F80800000820
:103A0000F808001F202020201F000878880000C828
:103A10003808000007380E010000F80800F8000818
:103A2000F800033C0700073C030008186880806822
:103A3000180820302C03032C30200838C800C83860
:103A400008000000203F2000000010080808C838C7
:103A500008002038262120201800000000FE020265
:103A600002000000007F40404000000C30C0000019
:103A70000000000000010638C00000020202FE0043
:103A80000000004040407F000000000004020202ED
:103A90000400000000000000000000000000000022
:103AA000000080808080808080800002020400000E
:103AB0000000000000000000000000008080808006
:103AC00000000019242222223F2008F800808000F4
:103AD0000000003F112020110E00000000808080B7
:103AE0000000000E112020201100000000808088BE
:103AF000F800000E112020103F2000008080808000
:103B00000000001F222222221300008080F08888FB
:103B100088180020203F2020000000008080808046
:103B20008000006B94949493600008F8008080807B
:103B30000000203F210000203F20008098980000D6
:103B400000000020203F2020000000000080989806
:103B5000000000C08080807F000008F800008080A6
:103B60008000203F24022D302000000808F80000CB
:103B700000000020203F2020000080808080808086
:103B80008000203F20003F20003F80800080808018
:103B90000000203F210000203F2000008080808026
:103BA0000000001F202020201F0080800080800057
:103BB000000080FFA12020110E0000000080808006
:103BC0008000000E112020A0FF8080808000808077
:103BD000800020203F2120000100000080808080A4
:103BE00080000033242424241900008080E0808099
:103BF00000000000001F20200000808000000080E6
:103C00008000001F202020103F2080808000008046
:103C1000808000010E300806010080800080008056
:103C200080800F300C030C300F00008080008080FB
:103C300080000020312E0E31200080808000008026
:103C4000808080818E7018060100008080808080D6
:103C500080000021302C2221300000000000807CF8
:103C6000020200000000003F404000000000FF0092
:103C7000000000000000FF0000000002027C800045
:103C800000000040403F0000000000060101020269
:103C9000040400000000000000000000000000001C
:103CA0004FBB610567ACDD3F182D4454FB21E93F54
:103CB0009BF681D20B73EF3F182D4454FB21F93F43
:103CC000E2652F227F2B7A3C075C143326A6813CC9
:103CD000BDCBF07A8807703C075C143326A6913C74
:103CE000C4EB98999999C9BF711623FEC671BCBFE0
:103CF0006D9A74AFF2B0B3BF9AFDDE522DDEADBF48
:103D00002F6C6A2C44B4A2BF0D5555555555D53F5F
:103D1000FF8300922449C23F6E204CC5CD45B73F7A
:103D2000513DD0A0660DB13FEB0D76244B7BA93FF2
:103D300011DA22E33AAD903F0000000000000000DD
:103D40005831000058320000583300005834000049
:103D50005835000058360000583700005838000029
:103D6000803D00080000002030010000280100080C
:103D7000DC3D00083001002010070000840100082D
:103D800041E3010145494E495413403D1B08440499
:103D90001A48041A4C041A50041A54041A58041AE3
:103DA0005C0430096F12833AA69B443B223F1A8081
:103DB00004811D803FCDCC32F1095E301114080121
:103DC000401A0C041A100419BF111A04041A08042A
:0C3DD0001A38101A44081A4804013F0079
:04000005080000ED02
:00000001FF
