:020000040800F2
:100000005806002001010008090100080B01000842
:100010000D0100080F010008110100080000000098
:1000200000000000000000000000000013010008B4
:100030001501000800000000170100081901000860
:100040001B0100081B0100081B0100081B01000820
:100050001B0100081B010008710A0008710D00084F
:10006000890D0008A10D0008B90D00081B0100084A
:100070001B0100081B0100081B0100081B010008F0
:100080001B0100081B0100081B0100081B010008E0
:100090001B0100081B0100081B010008F50D0008EA
:1000A0001B0100081B0100081B0100081B010008C0
:1000B000C1170008E1170008111800081B0100080B
:1000C0001B0100081B0100081B0100081B010008A0
:1000D0001B0100082D1800084918000865180008C1
:1000E0001B0100081B0100081B010008DFF80CD0F1
:1000F00000F080FC00480047292C0008580600202A
:100100000648804706480047FEE7FEE7FEE7FEE7B1
:10011000FEE7FEE7FEE7FEE7FEE7FEE76117000801
:10012000ED000008034611F8012B00F8012B002A0E
:10013000F9D118467047F0B480EA0102D40F4200AA
:10014000B2EB410F02D20246084611464A0042D0A5
:10015000C30DDDB2C1F3C752AD1A202D35DAC1F39C
:10016000160141F4000204B15242C5F1200602FA20
:1001700006F12A411044B3EBD05F23D0C4B1012D66
:10018000A0EBC35009DCF0BC4FF0004202EAC352BE
:10019000DBB200F5000000F05ABB400000F18070B7
:1001A00000EBC350A0F1807040EAD170490009E033
:1001B000490841EAC071A0EBC35000F500004008B7
:1001C00000EBC350F0BC00F039BB6142012202EBEE
:1001D0004101001BF6E7F0BC704781F00041AAE73F
:1001E00080F00040A7E780EA010210B502F000436A
:1001F000400022D04A001FD0010E01EB1261C0F373
:100200005600C2F3560240F4000042F40002A0FB84
:10021000022000047F39140400D0401C50EA124030
:1002200001D44000491EC2B20C0604EBD010401CA1
:100230004008802A02D003E0002010BD20F0010019
:10024000002900DA0020184310BD30B480EA010212
:1002500002F0004530F0004221F0004013D090B190
:10026000C30DD40DC2F31601C0F31600E41A41F415
:10027000000140F400027D34914201D3641C00E08F
:100280004900002C02DA30BC002070474FF4000017
:100290000023914201D3891A034340084FEA4101E8
:1002A000F7D151B1914202D14FF0004105E002D2A5
:1002B0004FF0010101E06FF0010103EBC45028444D
:1002C00030BC00F0BBBA2DE9FE4F804681EA030046
:1002D000C00F0C46009021F0004123F00045B8EB20
:1002E0000200A94105D24046214690461C460B46D5
:1002F000024623F00040104347D0270DC7F30A0001
:10030000C3F30A510290401A019040286BDAC3F3FC
:10031000130040F4801B0098924620B10023D2EBDA
:10032000030A63EB0B0B01985946C0F1400250469B
:1003300000F053FA06460D4650465946019A00F021
:100340006BFA10EB08006141002487EA115284EA3D
:10035000E7731A4340D0009A62B3019A012A4FEA28
:10036000075215DC001B61EB02014FF0004202EA6C
:100370000752CDE90042001C41F5801132462B4660
:1003800000F0A2FA03B0BDE8F08F40462146F9E73D
:10039000001B61EB0201001C41F5801300185B415A
:1003A0002018A2F5001747EB030140EAD570B619F3
:1003B0006D4111E06D084FEA360645EAC0754FEA17
:1003C0000752001B61EB0201001C41F58011490836
:1003D0004FEA30000019514132462B4603B0BDE8C8
:1003E000F04F00F062BA0098012240000023D0EBE9
:1003F000020263EBE073009821464FEAE074B8EB29
:10040000000061EB0401E9E783F000435BE781F062
:10041000004158E72DE9FE4F81EA030404F000444F
:1004200021F0004100944FF0000B23F0004350EA0C
:1004300001045ED052EA03045BD0C3F30A54C1F353
:100440000A552C44A4F2F3340194A0FB0254C1F3E6
:10045000130141F48011C3F3130343F4801301FB30
:10046000024400FB034E840A970A44EA815447EA97
:100470008357A4FB076802958D0A05FB07854FEAA1
:10048000932C04FB0C542705029D4FEA065847EABB
:100490001637B5EB08056EEB070C870E920E47EA90
:1004A000811742EA8312A7FB0201B6EB0B0164EB52
:1004B00000042B0D43EA0C335E1844EB1C50DA4663
:1004C0005146E7FB0201C5F313044FEA0B3343EA3D
:1004D00014534FEA0432019C43EA0603A4F10C04CE
:1004E0000294009CCDE900B400F0EEF903B0BDE841
:1004F000F08F00200146F9E72DE9F04D81EA030471
:1005000004F0004B21F0004514464FF0000A23F0A0
:10051000004150EA050220D054EA01021DD0C5F383
:100520000A570246C5F31303C1F31300C1F30A5679
:1005300040F4801543F48013A7EB0608101BD64641
:1005400008F2FD3873EB050002D308F1010801E061
:1005500092185B41B8F1000F03DA00200146BDE8B4
:10056000F08D00204FF48011064684460EE0171BE4
:1005700073EB050705D3121B63EB050306434CEA37
:10058000010C49084FEA300092185B4150EA01071C
:10059000EDD152EA030012D082EA040083EA050199
:1005A000084305D0101BAB4106D20122002306E010
:1005B00000224FF0004302E06FF0010253101AEBEB
:1005C00006004CEB085110EB0A0041EB0B01BDE8B3
:1005D000F04D00F06AB9C10F80EAE0700844CA0724
:1005E0009623002100F033B996230022114600F033
:1005F0002EB90EB5C10F80EAE0700844CA07002189
:1006000040F233438DE80E000A460B4600F05CF9D9
:1006100003B000BD0EB540F2334102910021CDE997
:1006200000110A460B4600F04FF903B000BD00F080
:10063000004220F00040C10DC0F3160040F400005D
:100640007F2901DA00207047962903DCC1F1960169
:10065000C84001E096398840002AF4D040427047F3
:1006600020F00040C10DC0F3160040F400007F29C7
:1006700001DA00207047962903DCC1F19601C840D9
:10068000704796398840704770B5C1F30A5201F03F
:1006900000450024C1F3130140F2FF3341F48011FF
:1006A0009A4201DA002070BD40F233439A42A2F22E
:1006B000334203DC524200F09FF800E090402C43AC
:1006C000F1D0404270BD00F0004230F000400AD04E
:1006D000C10D01F56071C0F3160042EA0151C20874
:1006E00040071143704700200146704701F0004366
:1006F00030B421F0004150EA010206D00A0DA2F503
:100700006072C1F31301002A02DC30BC0020704784
:10071000440F44EAC104C100E01830BC00EBC250F1
:1007200000F08CB8002801DBC0F10040002901DB9B
:10073000C1F1004181427047002801DBC0F1004057
:10074000002901DBC1F100418842704730B50B46FA
:10075000014600202022012409E021FA02F59D42F1
:1007600005D303FA02F5491B04FA02F52844151EC5
:10077000A2F10102F1DC30BD2DE9F05F0546002059
:1007800092469B4688460646814640241BE0284602
:1007900041464746224600F02FF853465A46C01AB3
:1007A000914110D311461846224600F016F82D1A32
:1007B00067EB01084F4622460120002100F00DF8AA
:1007C00017EB00094E41201EA4F10104DFDC48466E
:1007D00031462A464346BDE8F09F202A04DB203AF2
:1007E00000FA02F1002070479140C2F1200320FA84
:1007F00003F3194390407047202A04DB203A21FA82
:1008000002F00021704721FA02F3D040C2F1200229
:100810009140084319467047202A06DBCB17203A3F
:1008200041FA02F043EAE07306E041FA02F3D040F5
:10083000C2F1200291400843194670470029A8BF21
:100840007047401C490008BF20F00100704710B4F9
:10085000B0FA80FC00FA0CF050EA010404BF10BCAE
:10086000704749B1CCF1200421FA04F411FA0CF1DB
:1008700018BF012121430843A3EB0C01CB1D4FEA14
:1008800000614FEA102042BF002010BC704700EB0F
:10089000C35010440029A4BF10BC7047401C49003D
:1008A00008BF20F0010010BC704710B5141E73F192
:1008B000000408DA401C41F1000192185B411A4320
:1008C00001D120F0010010BD2DE9F04D92469B466C
:1008D00011B1B1FA81F202E0B0FA80F22032904612
:1008E000FFF77BFF04460F4640EA0A0041EA0B018E
:1008F00053465A46084313D0114653EA010019D013
:10090000C8F140025046FFF777FF05460E465046B5
:1009100059464246FFF761FF084305D0012004E035
:1009200020463946BDE8F08D0020054346EAE076D2
:100930002C4337430A986305E40AA0EB0800002221
:10094000FD0A44EA47540A3002D500200146E9E78F
:10095000010510196941DDE9084500196941BDE843
:10096000F04DA2E770B521F0004303430CD0C1F372
:100970000A550024D5EB040564EB0403D617AD1A21
:10098000B34102DB0020014670BD201841EB02514B
:1009900070BDC1F30A52C1F3130140F2FF3341F4B9
:1009A00080119A4202DA00200146704740F2334338
:1009B0009A42A2F2334202DC5242FFF71DBFFFF718
:1009C0000CBF000030B5041E71F1000404DB4FF0D1
:1009D0000044404264EB0101141E73F1000405DB86
:1009E0001C464FF00043524263EB0403994208BF98
:1009F000904230BD064C074D06E0E06840F0010330
:100A000094E8070098471034AC42F6D3FFF772FB26
:100A1000004A0008204A000870B58C1810F8015BE5
:100A200015F0070301D110F8013B2A1106D110F887
:100A3000012B03E010F8016B01F8016B5B1EF9D18B
:100A40002B0705D40023521E0DD401F8013BFAE711
:100A500010F8013BCB1A921C03E013F8015B01F87C
:100A6000015B521EF9D5A142D8D3002070BD000011
:100A70002DE9FF5FA348006800F0010000287DD049
:100A800000F08CFBA048B0F90000FFF7A4FD019036
:100A9000FFF719FE4FF066329C4BCDE90201FFF7DC
:100AA0002BFD80469A4A9B4BFFF7B4FC06460F4647
:100AB00099480068FFF707FE824632463B46FFF73B
:100AC00002FC0446FFF712FE934908609348B0F910
:100AD0000000FFF780FD0190FFF7F5FD80464FF025
:100AE00066328A4BFFF708FD0646894A894BFFF7B5
:100AF00091FC82468B468A480068FFF7E4FD524627
:100B00005B46CDE90201FFF7DEFB0446FFF7EEFD91
:100B1000834908608348B0F90000FFF75CFD01904D
:100B2000FFF7D1FD82464FF06632784BFFF7E4FCC9
:100B30008046774A774BFFF76DFCCDE902017A4892
:100B40000068FFF7C0FD0646DDE90223FFF7BBFBA7
:100B50000446FFF7CBFD744908607448B0F9000003
:100B6000FFF739FD83467248B0F90000FFF733FD07
:100B700059460390FFF769FB824600E0C0E0FFF7AB
:100B8000A2FD804601F0C2FB06466A4A6A4BFFF7A7
:100B900041FC0446FFF7AAFD684908606348B0F9C4
:100BA0000000FFF718FD83466548B0F90000FFF725
:100BB00012FD59460390FFF748FB8246FFF783FD7D
:100BC000804601F0A3FB81F000410646594A5A4B8A
:100BD000FFF720FC0446FFF789FD5A490860584892
:100BE000B0F90000FFF7F7FC83465148B0F9000068
:100BF000FFF7F1FC59460390FFF727FB8246FFF70A
:100C000062FD064601F082FB04464A4A4A4BFFF762
:100C100001FC8046FFF76AFD4B4908604B48B0F97C
:100C20000000FFF7D8FC0390FFF74DFD8046894692
:100C30004748B0F90000FFF7CEFC0390FFF743FDF3
:100C4000064642464B4601F071FC0446394A3A4B8F
:100C5000FFF7E0FB8246FFF749FD3E4908602A485E
:100C6000B0F90000FFF7B7FC8146FFF72CFD0746FF
:100C70004FF06632254BFFF73FFC0546FFF736FD88
:100C8000044622462D480168334800F0E7F933490D
:100C900008602248B0F90000FFF79DFC8146FFF78D
:100CA00012FD07464FF06632184BFFF725FC05464C
:100CB000FFF71CFD0446224622480168284800F040
:100CC000CDF9284908601748B0F90000FFF783FC08
:100CD0008146FFF7F8FC07464FF066320B4BFFF7F3
:100CE0000BFC0546FFF702FD044622461948016841
:100CF0001D4800F0B3F91D49086001200149086052
:100D0000BDE8FF9F140401401601002066663040D4
:100D10007B14AE47E17A743F1C01002018010020CB
:100D2000200100201A0100202401002014010020CD
:100D300012010020D9CEF753E3A54C402801002032
:100D4000100100202C010020300100204201002071
:100D500040010020480100208400002034010020D0
:100D6000B400002038010020540000203C01002085
:100D70000448006800F0020010B102200149086038
:100D800070470000140401400448006800F00400AB
:100D900010B10420014908607047000014040140AC
:100DA0000448006800F0080010B1082001490860FC
:100DB000704700001404014010B50C48006800F0B2
:100DC000100090B10521012001F02AFE28B1084849
:100DD0000068401E0649086004E005480068401CA1
:100DE0000349086010200149086010BD1404014047
:100DF0000C00002010B51D48006800F0200010B164
:100E000020201A4908601948006800F0400090B19D
:100E10000221002001F004FE28B115480068401CA2
:100E20001349086004E012480068401E1049086039
:100E300040200E4908600D48006800F0800010B1A5
:100E400080200A4908600948006800F4807018B1E1
:100E50004FF48070054908600448006800F4007091
:100E600018B14FF400700149086010BD140401402E
:100E70000800002010B51948806940F001001749AA
:100E800088611748406820F0E060154948600846CE
:100E9000406840F00070486000220D21012001F000
:100EA000D1FD00220E21012001F0CCFD00220F21F6
:100EB000012001F0C7FD0948806940F0040007499E
:100EC00088610848006820F07040064908600846BC
:100ED000006840F08040086010BD00000010024033
:100EE000000001400408014070B5054600240BE0F5
:100EF000204601F0D5F9322000F073FD00F0B5FB7B
:100F000025F81400601CC4B2082CF1DB70BD10B5CC
:100F100002220621012001F095FD02220721012075
:100F200001F090FD01220721104601F05DFE012233
:100F30000621104601F058FE10BD10B50122072110
:100F4000104601F051FE01220621104601F04CFE30
:100F500000220621012001F047FE10BD70B50025DA
:100F600001220721104601F03FFE002412E0012279
:100F70000621104601F038FE0721012001F050FD46
:100F800010B180202041054300220621012001F0FC
:100F90002BFE641C082CEADB284670BD70B50546A4
:100FA000002419E080202041284028B10122072197
:100FB000104601F019FE04E000220721012001F093
:100FC00013FE01220621104601F00EFE002206212A
:100FD000012001F009FE641C082CE3DB70BD10B594
:100FE00001220721104601F0FFFD012206211046D3
:100FF00001F0FAFD00220721012001F0F5FD002299
:101000000621012001F0F0FD10BD10B500220721DE
:10101000012001F0E9FD01220621104601F0E4FD66
:1010200001220721104601F0DFFD10BD10B500249C
:1010300001220721104601F0D7FD012206211046AA
:1010400001F0D2FD0721012001F0EAFC0446002254
:101050000621012001F0C8FD204610BD2DE9F05FFA
:1010600004460D4616463046E16AFFF7B6F880465C
:10107000E169FFF7B8F80746A16AFFF75CF8A062DC
:10108000E06AE062D4E90601FFF7ADF88246E16963
:10109000FFF7A9F88046D4E90401FFF74CF883462E
:1010A000E169FFF7A0F88246E168FFF799F8814609
:1010B0004146FFF740F807462168FFF73CF8E0603B
:1010C000D4E90601FFF78FF807462169FFF788F892
:1010D0002061D4E90601FFF786F807466169FFF74A
:1010E0007FF860616168A069FFF725F8A061D4E925
:1010F0000210FFF720F807463946E068FFF7A5F829
:101100002062D4E90210FFF716F8074639466069F5
:10111000FFF79BF860622846A16AFFF75EF88046F9
:10112000216AFFF760F80746A16AFFF704F8A0629A
:101130002846A16AFFF751F88046616AFFF753F825
:101140000746E16AFEF7F7FFE0624FF07E50216A42
:10115000FFF743F80746E168FFF745F8E0604FF016
:101160007E50216AFFF739F807462169FFF73BF8FF
:101170002061616AE068FFF736F807466169FFF7AA
:101180002FF86061616A2069FFF72DF80746A169B1
:10119000FFF726F8A061A06ABDE8F09F70B53B207C
:1011A00000F058F804463C2000F054F8054645EAA3
:1011B000042000B2214908803D2000F04BF804468D
:1011C0003E2000F047F8054645EA042000B21C49DD
:1011D00008803F2000F03EF80446402000F03AF836
:1011E000054645EA042000B216490880432000F075
:1011F00031F80446442000F02DF8054645EA042065
:1012000000B211490880452000F024F80446462029
:1012100000F020F8054645EA042000B20B4908809A
:10122000472000F017F80446482000F013F8054660
:1012300045EA042000B20649088070BD1001002074
:1012400012010020140100201601002018010020C6
:101250001A01002070B50446FFF7C1FED020FFF749
:101260009DFEFFF7E3FE2046FFF798FEFFF7DEFE48
:10127000FFF7CBFEFFF7B3FED120FFF78FFEFFF79E
:10128000D5FEFFF76BFE0546FFF757FEFFF7BDFEE5
:10129000284670BD014607238B431A02054B186888
:1012A0004FF6FF0318401043034B1843014B1860DF
:1012B000704700000CED00E00000FA0570B505462F
:1012C0000C460420FFF7E6FF0E48005D00F0010623
:1012D00046EA0510C1B20B4801552046E21704EB5F
:1012E000D2625211A4EB421301229A402146E31725
:1012F00004EBD3635B119B0003F1E023C3F80021EF
:1013000070BD000000E400E070B500240EE0002194
:10131000204600F0D5F8002504E0002000F095F903
:10132000681CC5B2802DF8DB601CC4B2082CEEDB53
:1013300070BD10B502220621012001F083FB0222BC
:101340000721012001F07EFB01220621104601F059
:101350004BFC01220721104601F046FC10BD70B580
:101360000546002413E08020204100EA0502072101
:10137000012001F039FC01220621104601F034FC65
:1013800000220621012001F02FFC601CC4B2082CB1
:10139000E9DB01220621104601F026FC002206218D
:1013A000012001F021FC70BD10B50122072110467B
:1013B00001F01AFC01220621104601F015FC002262
:1013C0000721012001F010FC00220621012001F07C
:1013D0000BFC10BD10B500220721012001F004FC18
:1013E00001220621104601F0FFFB012207211046D1
:1013F00001F0FAFB10BD70B5002406E0002500E006
:101400006D1CB5F57A7FFBD3641CB4F57A7FF5D3F8
:10141000FFF78FFFAE2000F008F9D52000F005F9A6
:10142000802000F002F9A82000F0FFF83F2000F033
:10143000FCF8D32000F0F9F8002000F0F6F8402086
:1014400000F0F3F8A12000F0F0F8C82000F0EDF86B
:10145000DA2000F0EAF8122000F0E7F8812000F02E
:10146000E4F8CF2000F0E1F8D92000F0DEF8F12018
:1014700000F0DBF8DB2000F0D8F8302000F0D5F8E1
:10148000A42000F0D2F8A62000F0CFF88D2000F0C4
:10149000CCF8142000F0C9F8AF2000F0C6F8FFF730
:1014A00033FF0021084600F00BF870BD10B502466E
:1014B000012000E050430B1EA1F10101FAD110BD43
:1014C00070B505460C4645F0B00000F0AEF81021AE
:1014D00041EA141000F0A9F804F00F0000F0A5F89C
:1014E00070BD00002DE9F04105460E461746721EFC
:1014F000D206110E6A1E5206100EFFF7E1FF0024FD
:1015000009E0A7F12001134A02EB0111085D00F088
:101510009CF8601CC4B2082CF3DB721ED206110EBC
:101520006A1E012303EB4202D0B2FFF7C9FF002479
:101530000BE0A7F12001074A02EB011204F10801B8
:10154000505C00F082F8601CC4B2082CF1DBBDE8EE
:10155000F0810000204100082DE9F04780460E464A
:1015600017461D46002415E0281B411E0A20FFF7E0
:101570009DFFB7FBF0F00A21B0FBF1F201FB120076
:1015800000F130093019C1B24A464046FFF7AAFFC0
:10159000601CC4B2AC42E7DBBDE8F0872DE9F04740
:1015A0008146884615461E46002D06DB2B22414605
:1015B0004846FFF797FF2F4605E02D224146484653
:1015C000FFF790FF6F42002417E0301B411E0A20F6
:1015D000FFF76CFFB7FBF0F00A21B0FBF1F201FB63
:1015E000120000F1300A08EB0400401CC1B2524660
:1015F0004846FFF777FF601CC4B2B442E5DBBDE8A4
:10160000F0872DE9F04107460E461546002407E015
:101610002A5D3019C1B23846FFF764FF601CC4B2BE
:10162000285D0028F4D1BDE8F08110B50446FFF72D
:10163000BBFE7820FFF793FE0020FFF790FE2046C8
:10164000FFF78DFEFFF7C6FE10BD10B50446FFF78D
:10165000ABFE7820FFF783FE4020FFF780FE204698
:10166000FFF77DFEFFF7B6FE10BD10B50F2100207D
:1016700001F0D6F910BD10B500F002F810BD000061
:101680000CB50020019000903348006840F4803091
:101690003149086000BF3048006800F40030009015
:1016A0000198401C0190009818B90198B0F5A06FFE
:1016B000F1D12948006800F4003010B101200090F9
:1016C00001E0002000900098012843D123480068E1
:1016D00040F01000214908600846006820F003002F
:1016E00008600846006840F0020008601A48406838
:1016F000194948600846406848600846406840F418
:10170000806048600846406820F47C1048600846C5
:10171000406840F4E81048600846006840F0807077
:10172000086000BF0C48006800F000700028F9D085
:101730000948406820F003000749486008464068AF
:1017400040F00200486000BF0348406800F00C0011
:101750000828F9D10CBD0000001002400020024012
:1017600010B51348006840F00100114908600846B0
:101770004068104908400E494860084600680E4914
:1017800008400B4908600846006820F48020086083
:101790000846406820F4FE0048604FF41F0088604F
:1017A000FFF769FF4FF000600449086010BD0000BA
:1017B000001002400000FFF8FFFFF6FE08ED00E019
:1017C0004FF08040008A00F0010038B14FF08040B7
:1017D000008A20F001004FF080410882704700002D
:1017E00010B50948008800F0010060B101F044FC28
:1017F00006480068401C054908600348008820F03E
:1018000001000149088010BD1004004000000020C4
:101810000548008800F0010028B10348008820F046
:101820000100014908807047100800400548008801
:1018300000F0200028B10348008820F02000014972
:1018400008807047003801400548008800F02000FB
:1018500028B10348008820F0200001490880704723
:101860000044004010B50948008800F0200058B13D
:101870000649091D0988C8B202F036FC03480088F1
:1018800020F020000149088010BD00000048004001
:101890000FB4054B10B503A9044A029800F068F98B
:1018A00010BC5DF814FB0000052A00080C010020A4
:1018B0000FB4084B10B504A902AA039800F058F918
:1018C000044602A9002000F01BFD204610BC5DF874
:1018D00014FB000001230008490050EAC12018BF92
:1018E00004204A0D18BF40F0010040F2FF72B2EB35
:1018F000515F08BF40F00200012808BF0520704773
:101900002DE9F0414F1E00EBC7010446D1E900016B
:1019100015461E4637F006020DD02A463346FEF71E
:1019200079FD7F1E04EBC703D3E90023FEF7CBFC50
:1019300037F00602F1D1022F25D0042F13D0062F45
:1019400018BFBDE8F0812A463346FEF763FDD4E9AF
:101950000A23FEF7B8FC2A463346FEF75BFDD4E9BE
:101960000823FEF7B0FC2A463346FEF753FDD4E9C0
:101970000623FEF7A8FC2A463346FEF74BFDD4E9C2
:101980000423FEF7A0FC2A463346FEF743FDD4E9C4
:101990000223FEF798FC2A463346FEF73BFDD4E9C6
:1019A0000023BDE8F041FEF78EBC0122FEF7DABF4E
:1019B000FEF789BC024A00201107FEF7D3BF0000E2
:1019C00001FDFFFF02E008C8121F08C1002AFAD17A
:1019D00070477047002001E001C1121F002AFBD1AF
:1019E000704701B5009800F0A7FE08BD2DE9FF5F24
:1019F00082B00021DDE90430020DDDF840B0034380
:101A000018D044F61050A2F2FF3242431514119838
:101A100001281FD0A5EB0B00401C5FEA000A4FF025
:101A200000064E4FDFF83891B046504615D5CAF142
:101A3000000413E0119801244AA3012801D16FEAA0
:101A40000B010298119AC0E90031C0E9024206B0C8
:101A5000BDE8F09FCBF10000DFE704460021404ADB
:101A6000491842EB0450CDE9001012E0E00707D01E
:101A700032463B4640464946FEF7CCFC8046894606
:101A800032463B4610461946FEF7C4FC06460F4652
:101A90006410002CEAD1DDE90401DDE90023BAF18C
:101AA000000F06DAFEF7B6FC42464B46FEF7B2FCE4
:101AB00005E0FEF721FD42464B46FEF71DFD0446BC
:101AC0000E460022284BFEF77DFF03D84FF0FF3073
:101AD000014607E00022254B20463146FEF7F3FB86
:101AE000FEF757FF102409E0002C0ADB0A2200232E
:101AF000FEF742FE039B30321A55641E50EA010283
:101B0000F2D1641C039AC4F111031444119A012AFE
:101B100003D0012208430DD10AE0084304D000207D
:101B20004FF0110B119072E7A3EB0B056D1E0DE04A
:101B30005B4504DD4FF0000205F1010504E003DA26
:101B40004FF00002A5F10105002AECD0029811998E
:101B5000C0E90231C0E9004579E700000000144007
:101B60000000F03F300000000000F0430000E03FC4
:101B70002DE9FF4F95B09B468946064600250FE2AA
:101B8000252877D100242746F84A0121059400E052
:101B9000044316F8013F203B01FA03F01042F7D14D
:101BA00030782A2811D06FF02F033078A0F130025E
:101BB000092A16D8059A44F0020402EB820203EBCC
:101BC00042021044761C0590EFE759F8042B059269
:101BD000002A03DA504244F40054059044F0020411
:101BE000761C30782E2816D116F8010F44F0040424
:101BF0002A280DD06FF02F023078A0F13003092B86
:101C000009D807EB870302EB4303C718761CF3E7F9
:101C100059F8047B761C30786C280FD006DC4C28F1
:101C200017D068280DD06A2814D104E0742810D089
:101C30007A280FD10DE044F400140AE044F4801433
:101C400001E044F440147278824202D104F5801419
:101C5000761C761C307866280BD013DC582877D099
:101C600009DC002875D04528F6D04628F4D047284E
:101C70001AD19DE118E0632835D0642879D0652811
:101C800012D195E1702873D008DC6728F1D069285B
:101C90006FD06E280DD06F2806D1B5E073282CD0F8
:101CA000752875D0782874D05A46179990476D1CBE
:101CB00075E1C4F30250022809D003280DD0D9F8E9
:101CC000001004280DD00D6009F1040967E1D9F86E
:101CD0000010EA17C1E90052F6E7D9F800100D80AC
:101CE000F2E70D70F0E719F8041B8DF800100020E2
:101CF0008DF80100EA46012003E059F804AB4FF0EB
:101D0000FF3061074FF0000102D40DE008F101013E
:101D10008846B9420FDA8045F8DB1AF80810002926
:101D2000F4D108E008F1010188468142FADB1AF893
:101D300008100029F6D105985B46A0EB080721465C
:101D40003846179A00F094FA284400EB080507E09B
:101D50004DE029E10DE01AF8010B5A46179990471A
:101D6000B8F10108F7D25B4621463846179A13E1CD
:101D700042E00A220092C4F302524FF0000A022A03
:101D800008D059F804CB032A4FEAEC710AD00DE0D1
:101D900029E02AE009F1070121F00702F2E802C177
:101DA000914609E00FFA8CFC4FEAEC71042A03D14A
:101DB0004FFA8CFC4FEAEC71002907DA0A46002141
:101DC000DCF1000C61EB02012D2202E0220504D5BA
:101DD0002B228DF80420012203E0E20701D020220B
:101DE000F7E7904659E00A2102E010220DE01021A9
:101DF0004FF0000A00910BE010224FF0000A44F06F
:101E000004040827009203E008224FF0000A009221
:101E1000C4F30252022A05D059F804CB0021032A48
:101E200008D009E009F1070121F00702F2E802C138
:101E3000914605E01FFA8CFC042A01D10CF0FF0C3E
:101E40004FF00008220728D5702806D0009B83F0A9
:101E5000100353EA0A0305D00EE040228DF8042057
:101E6000012208E05CEA010206D030228DF804204D
:101E70008DF8050002229046009B83F0080353EA88
:101E80000A030AD15CEA010201D1620705D53022BA
:101E90008DF804204FF001087F1E582804D034A08C
:101EA00003900EA802900DE036A0F9E75346604675
:101EB000009AFEF761FC84460398825C0298401EFB
:101EC000029002705CEA0100F0D1029806A9081A9B
:101ED00000F1200A600702D524F4803400E00127D5
:101EE000574502DDA7EB0A0000E0002000EB0A01E5
:101EF000009005984144401A0590E00306D45B46E3
:101F00002146179A059800F0B3F90544002706E02A
:101F100001A85A46C05D179990476D1C7F1C474524
:101F2000F6DBE0030CD55B462146179A059800F0D6
:101F30009FF9054404E030205A46179990476D1CDC
:101F40000099481E00900029F5DC08E002980299EB
:101F50005A460078491C0291179990476D1CBAF1B6
:101F60000001AAF1010AF1DC65E100000928010085
:101F700030313233343536373839616263646566FF
:101F800000000000303132333435363738394142C1
:101F9000434445460000000000F058F90544761C13
:101FA000307800287FF4ECAD19B02846BDE8F08FFA
:101FB000620700D4062709F1070222F0070CFCE8AB
:101FC0000223E14603F000485FEA080C02D00FF25A
:101FD000702C0DE05FEA045C02D50FF2682C07E07C
:101FE0005FEAC47C02D00FF2602C01E0AFF2700C0B
:101FF0004FF0FF3823F00043CDF850C065280CD0D7
:1020000006DC452809D046281DD047283DD13DE0B3
:10201000662818D067287ED138E00021112F01DB17
:10202000112000E0781CCDE9000106A90EA8FFF7F9
:10203000DDFCDDE90F010E9A03910021009207F10A
:10204000010A04914DE04FF000400097CDE90110E6
:1020500006A90EA8FFF7CAFCDDE90F0203920E9B4A
:1020600011990022DDF80CA00093049211B9791C9B
:1020700000EB010AB7EB0A0004D4C0F1FF3007F10E
:10208000010A0490AAEB0700019044E0012F00DA56
:1020900001270021112F01DD112000E03846CDE994
:1020A000000106A90EA8FFF7A1FCDDE90F010E9AB9
:1020B0000391002104910092BA4621070CD40399A0
:1020C000514500DA8A46BAF1010F05DD009AAAF1FE
:1020D0000101515C302908D0B84202DA10F1040F36
:1020E00006DA0121CDE9011015E0AAF10101E9E7C5
:1020F000002805DC049901440491AAEB000102E0E8
:10210000411C514500DD8A460499401A401C01904B
:102110004FF000400290200704D40198504501DBA5
:10212000CDF8048000208DF84F0002980DF14F0784
:10213000B0F1004F25D02B200E9002984FF00208EE
:1021400000280CDA404202902D200E9007E00A2170
:102150000298FEF7FBFA3031029007F8011DB8F142
:102160000001A8F10108F2DC02980028EFD1791EE5
:102170000E980870307800F0200040F0450007F815
:10218000020D12A8C01B00F107081498007800B1D6
:10219000012000EB0A01019801EBE0710598414430
:1021A000401A401E0590E00306D45B462146179A6C
:1021B000059800F05DF805441498007818B15A4667
:1021C000179990476D1CE00324D55B462146179A6A
:1021D000059800F04DF805441CE00498002807DB42
:1021E000DDE90301884203DD0098405C179901E0B6
:1021F000179930205A469047049805F10105401C74
:1022000004900198401E019004D12E205A4617993F
:1022100090476D1CBAF10001AAF1010ADDDC05E06E
:1022200017F8010B5A46179990476D1CB8F1000139
:10223000A8F10108F4DC5B462146179A0598ABE645
:102240002D0000002B000000200000002DE9F041CF
:10225000044600251E461746880404D405E0394686
:102260002020B0476D1C641EF9D52846BDE8F081DA
:102270002DE9F041044600251E469046C80301D5CD
:10228000302700E02027880404D505E04146384681
:10229000B0476D1C641EF9D52846BDE8F0810000EA
:1022A00000BF00F0010121B14FF40051134A116049
:1022B00004E04FF40051114A121D116000BF00BF2D
:1022C000C0F3400121B14FF480410C4A116004E099
:1022D0004FF48041094A121D116000BF00BFC0F3D6
:1022E000800121B14FF40041044A116004E04FF431
:1022F0000041024A121D116000BF7047100C0140DE
:102300000A68531C0B601070704700002DE9F84FED
:1023100004460D4621F0004000917349814211DCD2
:102320007249884201DC06D12CB120462946BDE81D
:10233000F84FFFF73ABB6E48002DCCBF6D496E4990
:10234000BDE8F88F6D49814211DD6D498142D8BFEA
:102350004FF0FF366DDD20462946FFF7BDFA042811
:1023600008BFFFF727FB20462946BDE8F88F6549DF
:10237000654F25F00045814233DD6449814219DD16
:10238000002632464FF0804320462946FDF79BFF4A
:1023900080468A46012220462946FEF7E3FA0022BB
:1023A0003B46FEF731F842465346FEF7A5F8044691
:1023B0000D463EE001260022BA463B46204629460D
:1023C000FDF781FF80460F460022534620462946EE
:1023D000FEF71AF842463B46FEF78EF804460D46D5
:1023E00027E04B4981421BDDDFF828A102260022AD
:1023F000534620462946FEF70DF800223B46FDF7DE
:1024000062FF80460F460022534620462946FDF7CC
:10241000FBFF42463B46FEF76FF804460D4608E0D8
:10242000032622462B4600203B49FEF765F804466A
:102430000D4622462B4610461946FDF7EBFF8B460C
:10244000824602460B46FDF7E5FF07460246334843
:1024500088460B4606217844FFF752FA52465B46FF
:10246000FDF7D8FF82462E488B463A464346052163
:102470007844FFF745FA3A464346FDF7CBFF02465C
:102480000B46002E504659460CDAFDF71CFF22463B
:102490002B46FDF7BFFF01B022462B46BDE8F04FAB
:1024A000FDF7B5BFFDF70FFF22462B46FDF7B2FF44
:1024B0001C4A7A4402EBC603D3E90023FDF7A4FFCC
:1024C00022462B46FDF7A0FF174A7A4402EBC603CB
:1024D000D3E90023FDF79BFF009A002AB8BF81F0E3
:1024E0000041BDE8F88F0000000010440000F07FBC
:1024F000182D4454FB21F93FFB21F9BF0000DC3FBC
:102500000000203E0000F33F0000F03F0000E63FE7
:10251000008003400000F83F0000F0BF1E230000D1
:10252000DC2200007A220000422200002DE9F04D5A
:102530009446CCF1000423F000464CEA0404524FC8
:1025400046EAD4749A46884621F00042BC4206D836
:10255000454240EA050442EAD474BC4204D9BDE8CD
:10256000F04D6246FFF724BAAAF14055A5F17F6508
:1025700055EA0C040BD0022404EAAA74434DDFF898
:1025800010E144EAD87452EA000B04D00CE0BDE834
:10259000F04DFFF7BBBE002C14BF012CBDE8F08D41
:1025A000022C30D0032C32D056EA0C0B0AD0BE429B
:1025B00020D1BA4209D126F0804622F0804233462B
:1025C000114617E000291ADB25E0DFF8C8B0FB440C
:1025D000002C04BFDBE90001BDE8F08D012C02BF37
:1025E000DBE9000181F00041BDE8F08D022C0AD04A
:1025F000032C0CD0BA4212D1B8F1000F0BDA2348E9
:102600002549BDE8F08D28462449BDE8F08D2846CF
:102610007146BDE8F08D1D482149BDE8F08D921B43
:1026200012153C2AC4BF19481D490EDCBAF1000F2F
:10263000BEBF12F13C0F0020014606DB6246FDF7EB
:102640005BFF21F00041FFF761FE002C08BFBDE8F1
:10265000F08D012C04BF81F00041BDE8F08D114ADE
:10266000114B022C07D0FDF7CFFE2A46BDE8F04DF6
:102670000A4BFDF7C9BEFDF7C7FE2A46BDE8F04D7F
:10268000064BFDF7C4BE00000000F07F182D445437
:10269000FB2109C0D6210000FB21F9BFFB21094025
:1026A000FB21F93F075C143326A6A13C10B503219A
:1026B000002001F093FBFC21002001F08FFB164964
:1026C0000868FDF7CDFFC4B22146002001F086FB6B
:1026D00011494868FDF7C4FFC4B22146002001F04B
:1026E0007DFB0E490868FDF7BBFFC4B22146002000
:1026F00001F074FB09494868FDF7B2FFC4B22146F6
:10270000002001F06BFBFC21002001F067FB03219E
:10271000002001F063FB10BD4C010020800100206F
:1027200000B5034603E04FF47A7000F005F8181E78
:10273000A3F10103F7D100BD00EBC001C9004FF0C8
:10274000E0225161002191610521116100BF4FF02C
:10275000E021096901F480310029F8D004214FF00B
:10276000E022116170470000014609B1082901DD2E
:1027700000207047481E024A12F81000F9E70000D6
:10278000E801002010B500220121122000F010F80D
:1027900001220221002000F055F9002201210D2024
:1027A00000F006F801220521104600F04BF910BD9B
:1027B0002DE9F04704460E461746032194FBF1F03D
:1027C000C11700EB91718910A0EB810189064FEAD6
:1027D0001168032194FBF1F0C11700EB9171C1F373
:1027E0008705204600F06AF83148806940F0010012
:1027F0002F4988614FEAB13050F825000F2101FAC6
:1028000008F188432B4941F82500032094FBF0F19F
:1028100000FB114088B1032094FBF0F100FB114054
:10282000401E012101FA00F000FA08F0214951F898
:10283000251001431F4840F82510032094FBF0F1B8
:10284000012088401C49096808431B49086066B993
:10285000032094FBF0F101208840174908310968F2
:1028600008431549083108600BE0032094FBF0F1A0
:102870000120884010490C31096808430E490C3189
:102880000860032094FBF0F004280ADC032094FB8A
:10289000F0F0801D00F0FF0949463846FEF70EFDB6
:1028A00003E017213846FEF709FDBDE8F087000078
:1028B00000100240080001400004014010B5044629
:1028C000182C12D2DFE804F00C12181E242A30361D
:1028D0003C42484E545A60666C72787E848A909668
:1028E00001220021084600F0ADF889E00122002114
:1028F000104600F0A7F883E001220021022000F03A
:10290000A1F87DE001221146002000F09BF877E05D
:1029100001221146104600F095F871E0012211469F
:10292000022000F08FF86BE001220221002000F06D
:1029300089F865E001220221104600F083F85FE08B
:1029400001220221084600F07DF859E0012203210E
:10295000002000F077F853E001220321104600F038
:1029600071F84DE001220321022000F06BF847E0EE
:1029700001220421002000F065F841E00122042139
:10298000104600F05FF83BE001220421022000F035
:1029900059F835E001220521002000F053F82FE01E
:1029A00001220521104600F04DF829E00122052101
:1029B000022000F047F823E001220621002000F069
:1029C00041F81DE001220621104600F03BF817E017
:1029D00001220621022000F035F811E00122072132
:1029E000002000F02FF80BE001220721104600F034
:1029F00029F805E001220721022000F023F800BF9A
:102A000000BF10BD00BF054A128802F04002002A34
:102A1000F9D0C2B2014B1B1D1A807047003801402B
:102A200010B50246064850F82200806801248C4008
:102A300000EA04030BB1012010BD0020FCE70000F8
:102A4000E800002070B5664CA469042585402C433D
:102A5000634DAC6108295DDA624C54F8204024686B
:102A60008E000F25B540AC435E4D55F820502C60CC
:102A70001AB1032A01D0022A0FD10124944044F054
:102A800003048D00AC40574D55F820502D682C4361
:102A9000544D55F820502C60A1E0012A01D0042AA1
:102AA0002AD1504C54F8204024688E000825B540A7
:102AB0002C434C4D55F820502C60012A0ED1494C26
:102AC00054F82040E46801258D4024EA05030124E0
:102AD0008C401C43434D55F82050EC60042A7ED1B5
:102AE000404C54F82040E56801248C40A5433D4CFF
:102AF00054F82040E56072E0042494408D00AC401E
:102B0000384D55F820502D682C43364D55F820503F
:102B10002C6064E0334C54F820406468A1F108054F
:102B2000AE000F25B540AC432E4D55F820506C60DB
:102B30001AB1032A01D0022A11D10124944044F091
:102B40000304A1F10805AD00AC40264D55F8205016
:102B50006D682C43234D55F820506C603FE0012AEE
:102B600001D0042A2CD11F4C54F820406468A1F1F4
:102B70000805AE000825B5402C431A4D55F82050E5
:102B80006C60012A0ED1174C54F82040E5680124EE
:102B90008C4025EA040301248C401C43114D55F858
:102BA0002050EC60042A1AD10E4C54F82040E568FD
:102BB00001248C40A5430B4C54F82040E5600EE006
:102BC00004249440A1F10805AD00AC40054D55F832
:102BD00020506D682C43034D55F820506C6070BD3B
:102BE00000100240E800002030B57AB10D4C54F8D6
:102BF0002040E46801258D4024EA050301248C402F
:102C00001C43084D55F82050EC600AE0054C54F880
:102C10002040E46801258D40AC43024D55F820501A
:102C2000EC6030BDE800002008B5FEF7E4FB00F0E2
:102C30006DF9FFF7A7FD00224FF4E131104601F0D6
:102C40006FF883A0FEF724FE4FF4E13001F0E4F8C2
:102C50008448854B854A01210090854800F05EFA42
:102C60008048814B814A01210090824800F056FA49
:102C7000FEF74DF9002211460120FFF799FD0022D1
:102C80006421012000F0FEFBFEF7F4F8DEE07A4854
:102C9000FEF72AF900F02EFC0120FFF765FD04463F
:102CA0000123224619461846FEF756FC0220FFF77C
:102CB0005BFD04460123224603211846FEF74CFC27
:102CC0000320FFF751FD0446012322460521184643
:102CD000FEF742FC0420FFF747FD0446012322468D
:102CE00007211846FEF738FC0520FFF73DFD044696
:102CF0000123224609211846FEF72EFC0620FFF785
:102D000033FD0446012322460B211846FEF724FC1E
:102D10000720FFF729FD0446012322460D2118460E
:102D2000FEF71AFC0820FFF71FFD04460123224688
:102D30000F211846FEF710FC504A01210220FEF731
:102D400060FC4FA206210220FEF75BFC48490868A0
:102D5000FDF76DFC04460323224608210220FEF7FE
:102D6000FBFB48A20C210220FEF74BFC41490868FE
:102D7000FDF75DFC0446032322460E210220FEF7E8
:102D8000EBFB41A201210320FEF73BFC38494868D8
:102D9000FDF74DFC04460423224603210846FEF7B6
:102DA000FDFB3AA209210320FEF72BFC31494868BC
:102DB000FDF73DFC0446042322460B210320FEF7C9
:102DC000EDFB33A201210420FEF71BFC28494869D2
:102DD000FDF72DFC04460323224602210420FEF7C2
:102DE000BBFB2CA205210420FEF70BFC20498869BF
:102DF000FDF71DFC04460323224606210420FEF7AE
:102E0000ABFB25A209210420FEF7FBFB1949486909
:102E1000FDF70DFC0446032322460A210420FEF799
:102E20009BFB1CA20D210420FEF7EBFB11498869D6
:102E3000FDF7FDFB0446032322460E210420FEF786
:102E40008BFB01F01DF85020FFF76AFC1FE7000024
:102E50004361722076312E322052656164790D0A09
:102E600000000000000070410000B0420000484334
:102E70004C01002080010020E80100201400002007
:102E8000413A0000423A000045310000453200005E
:102E9000410000002F0000004200000010B5044671
:102EA000A2B20021084600F063FA09480278052121
:102EB0000020FFF799FE0648007808B9012000E0DD
:102EC0000020024607210020FFF78EFE10BD000003
:102ED0000400002010B50446A2B20121002000F039
:102EE00047FA0948027804210020FFF77DFE0648D2
:102EF000007808B9012000E00020024603210020EC
:102F0000FFF772FE10BD00000500002010B54FF461
:102F10007A720021084600F01DF94FF47A720121FF
:102F2000002000F017F9002205211046FFF78AFD66
:102F3000002207211046FFF785FD002204211046DC
:102F4000FFF780FD002203211046FFF77BFD10BD37
:102F500070B505460C46002D08DB002011490870AD
:102F60002846FDF738FB1049086007E001200D49AD
:102F700008706842FDF72FFB0B490860002C08DB46
:102F800000200A4908702046FDF725FB0849086023
:102F900007E00120054908706042FDF71CFB044969
:102FA000086070BD040000204C01002005000020D6
:102FB000800100202DE9F0410446D4E90001FDF72D
:102FC0000CF9A060206B01282DD1D4E90201FDF796
:102FD00004F905466169FDF706F92062A168A06958
:102FE000FDF701F9A0624FF08040E168FDF7FBF8C2
:102FF0000746A168FDF7F4F806462169FDF79BF83E
:103000000546E169FDF7EFF86062A16A206AFDF705
:1030100092F80646616AFDF78EF80546E16AFDF70B
:103020008AF8E06221E0206BF8B9A1686069FDF7D9
:10303000DAF82062A168A069FDF7D5F80546A16A13
:10304000FDF779F8A062D4E90201FDF7C6F805465C
:10305000E169FDF7C8F86062A16A206AFDF76BF8C4
:103060000546616AFDF767F8E062E1682161A168E1
:10307000E160BDE8F081000010B52248007838B169
:10308000214800684042FDF7A6FA2049486005E063
:103090001D480068FDF79FFA1C4948601C480078ED
:1030A00038B11C4800684042FDF795FA1A4948605B
:1030B00005E018480068FDF78EFA174948600020BF
:1030C00011490860134908601048FFF773FF124860
:1030D000FFF770FF0D4800F029F80F4800F026F8C0
:1030E0000A49C86AFDF7A3FA0446FFF7D7FE0A4962
:1030F000C86AFDF79CFA0446FFF7ECFEFFF7D6FA24
:1031000010BD000004000020080000204C01002039
:10311000050000200C0000208001002010B5029C5A
:10312000016342618361C46110BD000010B50446B3
:103130000749E06AFDF700FB01D80548E06200217D
:10314000E06AFDF7EFFA01D80020E06210BD000050
:10315000005043472DE9F04104460D4616462846E7
:10316000E91705EB91718910A5EB8101491CCFB2DC
:103170005148C0690121A14008434F49C8614F48E7
:1031800090FBF6F0401E4E4951F8241088854720E8
:103190004B4951F824100885284600F093F8012F78
:1031A00006D0022F1ED0032F36D0042F69D14DE058
:1031B000434850F82400008B40F06000404951F82B
:1031C000241008833E4850F82400008B40F008008B
:1031D0003B4951F8241008830020394951F8241044
:1031E00088864EE0364850F82400008B40F4C040FA
:1031F000334951F824100883314850F82400008BDB
:1032000040F400602E4951F82410088300202C4916
:1032100051F82410088734E0294850F82400808BA6
:1032200040F06000264951F824108883244850F863
:103230002400808B40F00800214951F82410888335
:1032400000201F4951F8241088871AE01C4850F8C4
:103250002400808B40F4C040194951F82410888321
:10326000174850F82400808B40F40060144951F84E
:10327000241088830020124951F82410A1F840003E
:1032800000BF00BF0E4850F82400008C791E8A0051
:103290000121914008430A4951F824100884084844
:1032A00050F82400008840F08100054951F82410AE
:1032B0000880BDE8F08100000010024040420F008D
:1032C000F400002010B504460C2C4FD2DFE804F0C7
:1032D000060C12181E242A30363C424803220021D4
:1032E0000846FFF7AFFB41E0032201210020FFF772
:1032F000A9FB3BE0032202210020FFF7A3FB35E0FE
:10330000032211460020FFF79DFB2FE00322062138
:103310000020FFF797FB29E0032207210020FFF799
:1033200091FB23E0032200210120FFF78BFB1DE02E
:10333000032201210846FFF785FB17E0032206213F
:103340000120FFF77FFB11E0032207210120FFF797
:1033500079FB0BE0032208210120FFF773FB05E056
:10336000032209210120FFF76DFB00BF00BF10BD44
:103370002DE9F84F04460D4617462846E91705EB98
:1033800091718910A5EB8101491C01F0FF084CF2F5
:103390005030874200DB0746384850F82400868DBD
:1033A000B8F1010F09D0B8F1020F1DD0B8F1030F29
:1033B00031D0B8F1040F5DD144E0701CFDF70BF97A
:1033C00083463846FDF710F92D490090FCF73DFF84
:1033D00082465946FCF707FF8146FDF741F9274928
:1033E00051F82410888645E0701CFDF7F4F8009031
:1033F0003846FDF7F9F883462149FCF726FF824657
:103400000099FCF7F0FE8146FDF72AF91B4951F8B7
:10341000241008872EE0701CFDF7DDF80090384678
:10342000FDF7E2F883461649FCF70FFF8246009944
:10343000FCF7D9FE8146FDF713F9104951F8241025
:10344000888717E0701CFDF7C6F800903846FDF736
:10345000CBF883460A49FCF7F8FE82460099FCF750
:10346000C2FE8146FDF7FCF8044951F82410A1F88A
:10347000400000BF00BFBDE8F88F0000F40000204E
:103480000050434770B504460D4616461748C069BC
:103490000121A14008431549C86105EB85004000A2
:1034A000401E134951F82410888541F61F401049E9
:1034B00051F8241008850E4850F82400008840F088
:1034C00001000B4951F824100880094850F82400E5
:1034D000808940F00100064951F82410888104F1E8
:1034E0001C00C1B23046FDF7E9FE70BD001002407D
:1034F000F40000202DE9F04F9DB00120FFF734F9D2
:1035000083460220FFF730F91C900320FFF72CF9C7
:103510001B900420FFF728F91A900520FFF724F9E3
:1035200019900620FFF720F918900720FFF71CF9E3
:1035300017900820FFF718F916900020FDF759F8AA
:10354000CDE90C011B98FDF765F8D64AD64BCDE9BD
:103550000401FCF75FFFCDE908011C98FDF75AF85C
:10356000D04AD24BCDE90001FCF754FFCDE904016C
:103570000BEB4B014800FDF73CF8CDE90201DDE91A
:103580000423FCF7A0FECDE90601DDE90823FCF7E2
:103590009AFECDE90A01DDE90C23FCF794FECDE9A2
:1035A0000E01FDF771F800B21590169901EB41017B
:1035B0004800FDF71EF8CDE90C011798FDF72AF831
:1035C000B84ABA4BCDE90401FCF724FFCDE9080164
:1035D0001898FDF71FF8B34AB34BCDE90001FCF78B
:1035E00019FFCDE904010020FDF703F8CDE9020140
:1035F000DDE90423FCF767FECDE90601DDE90823D8
:10360000FCF761FECDE90A01DDE90C23FCF75BFE66
:10361000CDE90E01FDF738F800B214901C980BEBC1
:1036200000011B9801441A98014419980144189804
:1036300001441798014416980844C0B21390139897
:1036400010B90724002546E01398082802D1082461
:10365000002540E0DDE91421881AFCF7BCFF05468F
:1036600000212846FDF768F801D2284601E085F0E0
:1036700000400F904FF07F510F98FDF753F801D2A3
:10368000002427E04FF081410F98FDF74BF809D255
:1036900000212846FDF750F801D2012000E0042067
:1036A000044617E082490F98FDF73CF809D2002143
:1036B0002846FDF741F801D2022000E0052004462B
:1036C00008E000212846FDF737F801D2032000E08A
:1036D0000620044600BF2E46072C02D00120754963
:1036E0000870072C17D17348007888B97248008891
:1036F000404207B27048B0F9008070A17148FCF7F1
:1037000011FD41463846FFF723FC1DB0BDE8F08FA0
:103710006D48066801E06C4806606C4801683046F8
:10372000FCF75BFD129069480660694812990068D1
:10373000FCF759FD31460F9066480068FCF753FDD1
:103740000E900F99FCF7F7FC814663494846FCF759
:10375000F3FF01D2DFF8809160494846FCF7E2FFB1
:1037600001D2DFF8789100213046FCF7E5FF01D265
:10377000304601E086F00040119059491198FCF75D
:1037800064FD58490E90FCF72EFD4FF07E510F90CE
:10379000FCF726FD10905448B0F90000FCF71BFF21
:1037A0000E901099FCF71FFD0F90FCF740FF0FFAE9
:1037B00080FA4E48B0F90000824502DA4B48B0F971
:1037C00000A05046FCF707FF49460E90FCF705FDA8
:1037D0000F90FCF72CFF07B25046FCF7FCFE494661
:1037E0000E90FCF7A8FC0F90FCF721FF0FFA80F871
:1037F000002F00DA00273C48B0F90000874202DDC4
:103800003948B0F90070B8F1000F01DA4FF0000844
:103810003548B0F90000804502DD3348B0F900803A
:10382000092C33D2DFE804F0050A0F14191E2328EF
:103830002D002FA12348FCF775FC2CE02EA1214878
:10384000FCF770FC27E02EA11E48FCF76BFC22E081
:103850002DA11C48FCF766FC1DE02DA11948FCF7C2
:1038600061FC18E02CA11748FCF75CFC13E02CA1CC
:103870001448FCF757FC0EE010A11248FCF752FC6C
:1038800009E029A10F48FCF74DFC04E028A10D48F0
:10389000FCF748FC00BF00BF41463846FFF758FB25
:1038A00000BF32E7CDCCCCCCCCCCFC3FCCCC104054
:1038B0000000F0404A0000204600002046494E44E7
:1038C00000000000140000204C00002050000020E8
:1038D000400000203C00002000007042000070C248
:1038E000000040413333333F4400002048000020B3
:1038F000474F20200000000052312020000000002F
:10390000523220200000000052332121000000002C
:103910004C312020000000004C322020000000002C
:103920004C3321210000000043524F53530000004C
:103930002D2D2D2D000000002DE9F04196B00446FC
:103940002848008810B916B0BDE8F0812548B0F9C4
:103950000000FCF740FE06462046FCF73CFE07460A
:103960003146FCF772FC05461E4804801E48B0F93B
:103970000000FCF730FE80462946FCF734FC074681
:103980004FF07C51FCF7D7FB0646FCF750FE00B227
:10399000154908801548B0F90000FCF71CFE804668
:1039A0002946FCF720FC07464FF07C51FCF7C3FB8F
:1039B0000646FCF73CFE00B20C4908800846B0F908
:1039C000000000900848B0F900300648B0F9002027
:1039D00007A102A8FDF76CFF02A9022000F00EFA71
:1039E00000BFB0E74400002046000020480000204F
:1039F00053706565643A20463D256420533D256437
:103A0000204E3D25640D0A002DE9F04704460E4680
:103A10000CB1207810B90020BDE8F08701270025FF
:103A200020782D2802D16F1E641C03E020782B28FB
:103A300000D1641C0FE014F8011BA1F13000FCF769
:103A4000CAFD80461D492846FCF7CDFB814641460C
:103A5000FCF771FB05462078302802DB20783928F6
:103A6000E9DD20782E281ED1641CDFF8548013E095
:103A70002178A1F13000FCF7AEFD82464146FCF70B
:103A8000B2FB81462946FCF756FB05460C494046E9
:103A9000FCF7A9FB8046641C2078302802DB2078E4
:103AA0003928E5DD00BF3846FCF795FD80462946FC
:103AB000FCF799FB30600120AEE7000000002041D8
:103AC000CDCCCC3D2DE9F04FC1B01F480068FCF7CC
:103AD000FAFD04460D461D480068FCF7F4FD064655
:103AE0000F461B49C869FCF7EEFD80468946184918
:103AF0008869FCF7E8FD82468B4615494869FCF762
:103B0000E2FDCDE90867CDE90A45CDE90C01114890
:103B1000B0F900001049B1F90010104AB2F90020C4
:103B2000CDE900ABCDE90289CDE9042106900C492D
:103B30000EA8DDE90C23FDF7BBFE0EA9022000F064
:103B40005DF941B0BDE8F08F400000203C0000204E
:103B50004C010020480000204600002044000020C6
:103B6000D04700082DE9F04FADB03B49C869FCF7DC
:103B7000AAFD04460D4638498869FCF7A4FD0646AF
:103B80000F4635494869FCF79EFD80468946334912
:103B9000C869FCF798FD82468B4630498869FCF776
:103BA00092FDCDE90C012D494869FCF78CFDCDE96A
:103BB00002ABCDE90489CDE90667CDE90845CDE939
:103BC0000A01DDE90C01CDE9000125490EA8DDE976
:103BD0000A23FDF76DFE0EA9022000F00FF91E4921
:103BE0004868FCF724FD04461B490868FCF71FFDE4
:103BF00081461A494868FCF71AFD82461749086849
:103C0000FCF715FD834617480068FCF75CFD054688
:103C10000E4615480068FCF756FD0746134803AAF0
:103C2000A2E86208CDE907A90297CDE9094010484A
:103C3000B0F9000000900F48B0F900300E48B0F91C
:103C400000200E490EA8FDF733FE0EA9022000F059
:103C5000D5F82DB0BDE8F08F800100204C01002088
:103C600054490008400000203C00002014000020BF
:103C7000480000204600002044000020A849000819
:103C80002DE9F04F89B081468A46B9F1000F01D184
:103C90001F4C00E01F4C4FEA0A1094FBF0FB584603
:103CA000FCF7B8FCCDE904015046FCF7A2FC07463E
:103CB0000022194BFCF7AEFB05460E462046FCF7EA
:103CC0008AFC0746FCF7FFFC2A463346CDE9000193
:103CD000FCF712FCCDE90201DDE90423FCF794FBBB
:103CE000CDE90601FCF702FD08904FF083410898EA
:103CF000FCF779FA08900898FCF7B2FC00EB0B107F
:103D0000064951F82910088109B0BDE8F08F00007C
:103D100000A24A04005125020000304000010020AA
:103D200070B504460E46154634B91448806940F40F
:103D300080401249886108E01048C06904F1100110
:103D400001228A4010430D49C861204600F01AF84C
:103D500031462046FFF794FF094850F82400808937
:103D600042F22C010843064951F82410888104F1DD
:103D70002500C1B22846FDF7A1FA70BD001002402F
:103D80000001002010B5044624B1012C0DD0022CF6
:103D900021D115E0032209210020FEF753FE042261
:103DA0000A210020FEF74EFE15E00322022100202A
:103DB000FEF748FE042203210020FEF743FE0AE03E
:103DC00003220A210120FEF73DFE04220B210120DF
:103DD000FEF738FE00BF00BF10BD000000BF064A5E
:103DE00052F82020128802F04002002AF7D0024A3E
:103DF00052F82020918070470001002010B5044641
:103E00000B4604E013F8011B2046FFF7E7FF187884
:103E10000028F7D110BD000010B50446012221464C
:103E20000220FFF77DFF04A10220FFF7E7FF0AA1B0
:103E30000220FFF7E3FF10BD0D0A3D3D3D20554137
:103E40005254332054756E65205265616479203D6B
:103E50003D3D0D0A0000000054797065203F20664A
:103E60006F72207374617475732C2048454C502018
:103E7000666F7220636F6D6D616E64730D0A000072
:103E8000F8B50BE189488A490978475C884909787F
:103E9000481CC11700EB91618911A0EB8111844A84
:103EA00011700D2F01D00A2F72D18248007800289E
:103EB0006FDD002080497F4A127888547D49087060
:103EC0007D48047845783F2C03D0532C04D1542DE1
:103ED00002D1FFF747FED3E0482C01D0682C02D175
:103EE000FFF7F0FDCCE0502C10D1412D01DB5A2D15
:103EF0000CDD69467048401CFFF786FD28B16F490C
:103F0000009848616E4900984861B9E0492C10D189
:103F1000412D01DB5A2D0CDD69466748401CFFF737
:103F200073FD28B1654900988861654900988861EA
:103F3000A6E0442C10D1412D01DB5A2D0CDD694641
:103F40005D48401CFFF760FD28B15C490098C861DE
:103F50005B490098C86193E0502C0BD1412D09D1E9
:103F600069465548801CFFF74FFD10B15349009832
:103F7000486185E0492C0DD1412D0BD169464E4851
:103F8000801CFFF741FD10B14C490098886177E033
:103F900077E082E0442C0BD1412D09D16946464897
:103FA000801CFFF731FD10B144490098C86167E0FB
:103FB000502C0BD1422D09D169463F48801CFFF798
:103FC00023FD10B13E490098486159E0492C0BD1BE
:103FD000422D09D169463848801CFFF715FD10B104
:103FE0003749009888614BE0442C0BD1422D09D110
:103FF00069463148801CFFF707FD10B13049009831
:10400000C8613DE0532C1BD10026012008E02A495D
:10401000095C303906EB860201EB4206411CC8B24E
:104020002549095C302903DB2349095C3929EEDD88
:10403000002E04DDC82E02DC30B2FFF77DFC1FE04D
:104040004B2C0BD1502D09D169461B48801CFFF722
:10405000DBFC10B11B490098086011E04B2C0BD120
:10406000442D09D169461448801CFFF7CDFC10B1DE
:1040700015490098086003E014A10220FFF7BEFE76
:104080000BE00C4800781F2807D20A480178007816
:10409000401C084A10700848475400BF0448007884
:1040A0001049097888427FF4EDAEF8BDF801002090
:1040B000E5000020E6000020380200204C0100202E
:1040C000800100203C000020400000203F20756E51
:1040D0006B6E6F776E20287472792048454C50299A
:1040E0000D0A0000E400002001460A4B1B78581C12
:1040F000C31700EB93639B11A0EB8313DAB206485E
:104100000078824205D00548024B1B78C154014813
:1041100002707047E4000020E5000020F801002054
:10412000000000000000000000000000000000008F
:10413000000000F800000000000000333000000024
:1041400000100C06100C060000000000000000002B
:1041500040C07840C0784000043F04043F0404009D
:10416000007088FC08300000001820FF211E0000AD
:10417000F008F000E018000000211C031E211E00C2
:1041800000F00888700000001E2123241927211048
:1041900010160E00000000000000000000000000EB
:1041A000000000E018040200000000071820400092
:1041B00000020418E0000000004020180700000082
:1041C000404080F0804040000202010F01020200E6
:1041D000000000F0000000000101011F01010100CA
:1041E000000000000000000080B07000000000002F
:1041F00000000000000000000001010101010101B8
:10420000000000000000000000303000000000004E
:104210000000000080601804006018060100000023
:1042200000E010080810E000000F102020100F0020
:10423000001010F8000000000020203F20200000A7
:1042400000700808088870000030282422213000FF
:1042500000300888884830000018202020110E0007
:104260000000C02010F8000000070424243F2400B0
:1042700000F80888880808000019212020110E0085
:1042800000E0108888180000000F112020110E0097
:1042900000380808C83808000000003F000000008F
:1042A0000070880808887000001C222121221C0050
:1042B00000E010080810E0000000312222110F0079
:1042C000000000C0C000000000000030300000000E
:1042D000000000800000000000008060000000007E
:1042E0000000804020100800000102040810200097
:1042F00040404040404040000404040404040400E2
:104300000008102040800000002010080402010076
:10431000007048080808F000000000303601000076
:10432000C030C828E810E0000718272423140B0029
:104330000000C038E0000000203C230202273820A3
:1043400008F8888888700000203F202020110E0087
:10435000C03008080808380007182020201008007E
:1043600008F808080810E000203F202020100F0067
:1043700008F88888E8081000203F20202320180033
:1043800008F88888E8081000203F2000030000009B
:10439000C03008080838000007182020221E02003C
:1043A00008F808000008F808203F210101213F20FB
:1043B000000808F8080800000020203F2020000026
:1043C00000000808F8080800C08080807F00000016
:1043D00008F888C028180800203F2001263820004F
:1043E00008F8080000000000203F202020203000B6
:1043F00008F8F800F8F80800203F003F003F2000D0
:1044000008F830C00008F808203F200007183F00D7
:10441000E01008080810E0000F10202020100F0006
:1044200008F808080808F000203F210101010000F9
:10443000E01008080810E0000F18242438504F003E
:1044400008F8888888887000203F2000030C3020FE
:1044500000708808080838000038202121221C003C
:10446000180808F8080818000000203F2000000085
:1044700008F808000008F808001F202020201F006E
:104480000878880000C83808000007380E010000CE
:10449000F80800F80008F800033C0700073C030098
:1044A000081868808068180820302C03032C3020FE
:1044B0000838C800C83808000000203F200000006D
:1044C00010080808C83808002038262120201800C5
:1044D000000000FE020202000000007F4040400099
:1044E000000C30C000000000000000010638C000D1
:1044F00000020202FE000000004040407F00000079
:10450000000004020202040000000000000000009D
:10451000000000000000000080808080808080809B
:104520000002020400000000000000000000000083
:1045300000008080808000000019242222223F2079
:1045400008F8008080000000003F112020110E00BC
:104550000000008080800000000E1120202011004B
:10456000000000808088F800000E112020103F20FD
:104570000000808080800000001F22222222130081
:10458000008080F0888888180020203F20200000CC
:104590000000808080808000006B94949493600081
:1045A00008F8008080800000203F210000203F208C
:1045B00000809898000000000020203F202000008C
:1045C000000000809898000000C08080807F00007C
:1045D00008F8000080808000203F24022D30200059
:1045E000000808F8000000000020203F2020000004
:1045F0008080808080808000203F20003F20003F1E
:104600008080008080800000203F210000203F202B
:104610000000808080800000000E112020110E001C
:10462000808000808000000080FFA12020110E000B
:104630000000008080808000000E112020A0FF80FC
:10464000808080008080800020203F2120000100A9
:1046500000008080808080000033242424241900FE
:10466000008080E0808000000000001F202000000B
:104670008080000000808000001F202020103F204C
:10468000808080000080808000010E3008060100DC
:1046900080800080008080800F300C030C300F0081
:1046A00000808000808080000020312E0E312000AC
:1046B000808080000080808080818E7018060100DC
:1046C00000808080808080000021302C22213000FA
:1046D00000000000807C020200000000003F40401B
:1046E00000000000FF00000000000000FF000000CC
:1046F0000002027C800000000040403F00000000FB
:104700000006010102020404000000000000000095
:104710004FBB610567ACDD3F182D4454FB21E93FD9
:104720009BF681D20B73EF3F182D4454FB21F93FC8
:10473000E2652F227F2B7A3C075C143326A6813C4E
:10474000BDCBF07A8807703C075C143326A6913CF9
:10475000C4EB98999999C9BF711623FEC671BCBF65
:104760006D9A74AFF2B0B3BF9AFDDE522DDEADBFCD
:104770002F6C6A2C44B4A2BF0D5555555555D53FE5
:10478000FF8300922449C23F6E204CC5CD45B73F00
:10479000513DD0A0660DB13FEB0D76244B7BA93F78
:1047A00011DA22E33AAD903F000000000000000063
:1047B00058310000583200005833000058340000CF
:1047C00058350000583600005837000058380000AF
:1047D0000D0A3D3D3D20436F6D6D616E6473202871
:1047E00055415254332031313532303029203D3D4E
:1047F0003D0D0A20502F492F443C76616C3E20200D
:10480000202020626F7468206D6F746F7273205067
:104810004944202020202020286E6F773A20503DE8
:10482000252E306620493D252E306620443D252E1C
:104830003066290D0A2050412F49412F44413C76D2
:10484000616C3E20206D6F746F7241206F6E6C79C9
:104850000D0A2050422F49422F44423C76616C3E63
:1048600020206D6F746F7242206F6E6C790D0A207C
:10487000533C696E743E202020202020202020738D
:1048800063616C6520616C6C207370656564732076
:104890002020202020286E6F773A20463D25642076
:1048A000533D2564204E3D2564290D0A204B503C84
:1048B000666C6F61743E2020202020207374656533
:1048C0007220502020202020202020202020202066
:1048D0002020286E6F773A20252E3166290D0A2078
:1048E0004B443C666C6F61743E2020202020207376
:1048F0007465657220442020202020202020202064
:104900002020202020286E6F773A20252E3166291E
:104910000D0A203F202020202020202020202020A1
:1049200020207072696E742066756C6C20737461DF
:104930007475730D0A2048454C50202020202020FB
:10494000202020202074686973206D65737361676F
:10495000650D0A002D2D2D2050494420537461749B
:104960007573202D2D2D0D0A4D6F746F72413A20F5
:10497000503D252E316620493D252E316620443D8F
:10498000252E31660D0A4D6F746F72423A20503DEC
:10499000252E316620493D252E316620443D252EA9
:1049A00031660D0A000000005370656564203A20EE
:1049B000463D256420533D2564204E3D25640D0A67
:1049C0005374656572203A204B503D252E31662088
:1049D0004B443D252E31660D0A456E636F6465724A
:1049E0003A20413D25642F256420423D25642F2532
:1049F000640D0A5374617465203A2025730D0A0012
:104A0000204A0008000000204C010000180A00089D
:104A10008C4A00084C0100200C050000D419000845
:104A200041E3010145494E495413B0471B08B40402
:104A30001AB8041ABC041AC0041AC4041AC8041A06
:104A4000CC04259A99B9401440402D1219B2023075
:104A5000096F12833AA69B443B223F1A80048107C8
:104A600010803FCDCC4C3D095E3051140801401AF6
:104A70000C041A100419B5111A04041A08041A387F
:0C4A8000101A44081A4804013F0000000E
:04000005080000ED02
:00000001FF
